{
  "_format": "hh-sol-artifact-1",
  "contractName": "Raffle",
  "sourceName": "contracts/Raffle.sol",
  "abi": [
    {
      "inputs": [],
      "name": "InvalidInitialization",
      "type": "error"
    },
    {
      "inputs": [],
      "name": "NotInitializing",
      "type": "error"
    },
    {
      "inputs": [
        {
          "internalType": "address",
          "name": "owner",
          "type": "address"
        }
      ],
      "name": "OwnableInvalidOwner",
      "type": "error"
    },
    {
      "inputs": [
        {
          "internalType": "address",
          "name": "account",
          "type": "address"
        }
      ],
      "name": "OwnableUnauthorizedAccount",
      "type": "error"
    },
    {
      "anonymous": false,
      "inputs": [
        {
          "indexed": false,
          "internalType": "uint64",
          "name": "version",
          "type": "uint64"
        }
      ],
      "name": "Initialized",
      "type": "event"
    },
    {
      "anonymous": false,
      "inputs": [
        {
          "indexed": true,
          "internalType": "address",
          "name": "previousOwner",
          "type": "address"
        },
        {
          "indexed": true,
          "internalType": "address",
          "name": "newOwner",
          "type": "address"
        }
      ],
      "name": "OwnershipTransferred",
      "type": "event"
    },
    {
      "inputs": [
        {
          "internalType": "bytes",
          "name": "",
          "type": "bytes"
        }
      ],
      "name": "checkUpkeep",
      "outputs": [
        {
          "internalType": "bool",
          "name": "upkeepNeeded",
          "type": "bool"
        },
        {
          "internalType": "bytes",
          "name": "",
          "type": "bytes"
        }
      ],
      "stateMutability": "view",
      "type": "function"
    },
    {
      "inputs": [],
      "name": "counter",
      "outputs": [
        {
          "internalType": "uint256",
          "name": "",
          "type": "uint256"
        }
      ],
      "stateMutability": "view",
      "type": "function"
    },
    {
      "inputs": [
        {
          "internalType": "uint256",
          "name": "_interval",
          "type": "uint256"
        }
      ],
      "name": "initialize",
      "outputs": [],
      "stateMutability": "nonpayable",
      "type": "function"
    },
    {
      "inputs": [],
      "name": "interval",
      "outputs": [
        {
          "internalType": "uint256",
          "name": "",
          "type": "uint256"
        }
      ],
      "stateMutability": "view",
      "type": "function"
    },
    {
      "inputs": [],
      "name": "lastTimeStamp",
      "outputs": [
        {
          "internalType": "uint256",
          "name": "",
          "type": "uint256"
        }
      ],
      "stateMutability": "view",
      "type": "function"
    },
    {
      "inputs": [],
      "name": "owner",
      "outputs": [
        {
          "internalType": "address",
          "name": "",
          "type": "address"
        }
      ],
      "stateMutability": "view",
      "type": "function"
    },
    {
      "inputs": [
        {
          "internalType": "bytes",
          "name": "",
          "type": "bytes"
        }
      ],
      "name": "performUpkeep",
      "outputs": [],
      "stateMutability": "nonpayable",
      "type": "function"
    },
    {
      "inputs": [],
      "name": "renounceOwnership",
      "outputs": [],
      "stateMutability": "nonpayable",
      "type": "function"
    },
    {
      "inputs": [
        {
          "internalType": "address",
          "name": "newOwner",
          "type": "address"
        }
      ],
      "name": "transferOwnership",
      "outputs": [],
      "stateMutability": "nonpayable",
      "type": "function"
    }
  ],
  "bytecode": "0x6080604052348015600f57600080fd5b50610b6f8061001f6000396000f3fe608060405234801561001057600080fd5b50600436106100935760003560e01c8063715018a611610066578063715018a6146101215780638da5cb5b1461012b578063947a36fb14610149578063f2fde38b14610167578063fe4b84df1461018357610093565b80633f3b3b27146100985780634585e33b146100b657806361bc221a146100d25780636e04ff0d146100f0575b600080fd5b6100a061019f565b6040516100ad919061075a565b60405180910390f35b6100d060048036038101906100cb91906107e4565b6101a5565b005b6100da6101df565b6040516100e7919061075a565b60405180910390f35b61010a600480360381019061010591906107e4565b6101e5565b6040516101189291906108dc565b60405180910390f35b610129610205565b005b610133610219565b604051610140919061094d565b60405180910390f35b610151610251565b60405161015e919061075a565b60405180910390f35b610181600480360381019061017c9190610994565b610257565b005b61019d600480360381019061019891906109ed565b6102dd565b005b60015481565b600254600154426101b69190610a49565b11156101db57426001819055506000808154809291906101d590610a7d565b91905055505b5050565b60005481565b60006060600254600154426101fa9190610a49565b101591509250929050565b61020d61047a565b6102176000610501565b565b6000806102246105d8565b90508060000160009054906101000a900473ffffffffffffffffffffffffffffffffffffffff1691505090565b60025481565b61025f61047a565b600073ffffffffffffffffffffffffffffffffffffffff168173ffffffffffffffffffffffffffffffffffffffff16036102d15760006040517f1e4fbdf70000000000000000000000000000000000000000000000000000000081526004016102c8919061094d565b60405180910390fd5b6102da81610501565b50565b60006102e7610600565b905060008160000160089054906101000a900460ff1615905060008260000160009054906101000a900467ffffffffffffffff1690506000808267ffffffffffffffff161480156103355750825b9050600060018367ffffffffffffffff1614801561036a575060003073ffffffffffffffffffffffffffffffffffffffff163b145b905081158015610378575080155b156103af576040517ff92ee8a900000000000000000000000000000000000000000000000000000000815260040160405180910390fd5b60018560000160006101000a81548167ffffffffffffffff021916908367ffffffffffffffff16021790555083156103ff5760018560000160086101000a81548160ff0219169083151502179055505b61040833610614565b856002819055504260018190555083156104725760008560000160086101000a81548160ff0219169083151502179055507fc7f505b2f371ae2175ee4913f4499e1f2633a7b5936321eed1cdaeb6115181d260016040516104699190610b1e565b60405180910390a15b505050505050565b610482610628565b73ffffffffffffffffffffffffffffffffffffffff166104a0610219565b73ffffffffffffffffffffffffffffffffffffffff16146104ff576104c3610628565b6040517f118cdaa70000000000000000000000000000000000000000000000000000000081526004016104f6919061094d565b60405180910390fd5b565b600061050b6105d8565b905060008160000160009054906101000a900473ffffffffffffffffffffffffffffffffffffffff169050828260000160006101000a81548173ffffffffffffffffffffffffffffffffffffffff021916908373ffffffffffffffffffffffffffffffffffffffff1602179055508273ffffffffffffffffffffffffffffffffffffffff168173ffffffffffffffffffffffffffffffffffffffff167f8be0079c531659141344cd1fd0a4f28419497f9722a3daafe3b4186f6b6457e060405160405180910390a3505050565b60007f9016d09d72d40fdae2fd8ceac6b6234c7706214fd39c1cd1e609a0528c199300905090565b60008061060b610630565b90508091505090565b61061c61065b565b6106258161069b565b50565b600033905090565b60007ff0c57e16840df040f15088dc2f81fe391c3923bec73e23a9662efc9c229c6a0060001b905090565b610663610721565b610699576040517fd7e6bcf800000000000000000000000000000000000000000000000000000000815260040160405180910390fd5b565b6106a361065b565b600073ffffffffffffffffffffffffffffffffffffffff168173ffffffffffffffffffffffffffffffffffffffff16036107155760006040517f1e4fbdf700000000000000000000000000000000000000000000000000000000815260040161070c919061094d565b60405180910390fd5b61071e81610501565b50565b600061072b610600565b60000160089054906101000a900460ff16905090565b6000819050919050565b61075481610741565b82525050565b600060208201905061076f600083018461074b565b92915050565b600080fd5b600080fd5b600080fd5b600080fd5b600080fd5b60008083601f8401126107a4576107a361077f565b5b8235905067ffffffffffffffff8111156107c1576107c0610784565b5b6020830191508360018202830111156107dd576107dc610789565b5b9250929050565b600080602083850312156107fb576107fa610775565b5b600083013567ffffffffffffffff8111156108195761081861077a565b5b6108258582860161078e565b92509250509250929050565b60008115159050919050565b61084681610831565b82525050565b600081519050919050565b600082825260208201905092915050565b60005b8381101561088657808201518184015260208101905061086b565b60008484015250505050565b6000601f19601f8301169050919050565b60006108ae8261084c565b6108b88185610857565b93506108c8818560208601610868565b6108d181610892565b840191505092915050565b60006040820190506108f1600083018561083d565b818103602083015261090381846108a3565b90509392505050565b600073ffffffffffffffffffffffffffffffffffffffff82169050919050565b60006109378261090c565b9050919050565b6109478161092c565b82525050565b6000602082019050610962600083018461093e565b92915050565b6109718161092c565b811461097c57600080fd5b50565b60008135905061098e81610968565b92915050565b6000602082840312156109aa576109a9610775565b5b60006109b88482850161097f565b91505092915050565b6109ca81610741565b81146109d557600080fd5b50565b6000813590506109e7816109c1565b92915050565b600060208284031215610a0357610a02610775565b5b6000610a11848285016109d8565b91505092915050565b7f4e487b7100000000000000000000000000000000000000000000000000000000600052601160045260246000fd5b6000610a5482610741565b9150610a5f83610741565b9250828203905081811115610a7757610a76610a1a565b5b92915050565b6000610a8882610741565b91507fffffffffffffffffffffffffffffffffffffffffffffffffffffffffffffffff8203610aba57610ab9610a1a565b5b600182019050919050565b6000819050919050565b600067ffffffffffffffff82169050919050565b6000819050919050565b6000610b08610b03610afe84610ac5565b610ae3565b610acf565b9050919050565b610b1881610aed565b82525050565b6000602082019050610b336000830184610b0f565b9291505056fea264697066735822122028f6442893dd56a8e6c196cfd1fd77f4f42e4d294499233af7beb7ca13146e4c64736f6c634300081c0033",
  "linkReferences": {},
  "deployedLinkReferences": {}
}