{
  "_format": "hh-sol-artifact-1",
  "contractName": "Swapper",
  "sourceName": "contracts/Swapper.sol",
  "abi": [
    {
      "inputs": [
        {
          "internalType": "contract ISwapRouter",
          "name": "_swapRouter",
          "type": "address"
        }
      ],
      "stateMutability": "nonpayable",
      "type": "constructor"
    },
    {
      "inputs": [],
      "name": "WETH9",
      "outputs": [
        {
          "internalType": "address",
          "name": "",
          "type": "address"
        }
      ],
      "stateMutability": "view",
      "type": "function"
    },
    {
      "inputs": [],
      "name": "poolFee",
      "outputs": [
        {
          "internalType": "uint24",
          "name": "",
          "type": "uint24"
        }
      ],
      "stateMutability": "view",
      "type": "function"
    },
    {
      "inputs": [],
      "name": "swapRouter",
      "outputs": [
        {
          "internalType": "contract ISwapRouter",
          "name": "",
          "type": "address"
        }
      ],
      "stateMutability": "view",
      "type": "function"
    },
    {
      "inputs": [
        {
          "internalType": "address",
          "name": "tokenAddress",
          "type": "address"
        },
        {
          "internalType": "uint256",
          "name": "amountIn",
          "type": "uint256"
        },
        {
          "internalType": "address",
          "name": "sender",
          "type": "address"
        },
        {
          "internalType": "address",
          "name": "receiver",
          "type": "address"
        }
      ],
      "name": "swapTokenForETH",
      "outputs": [
        {
          "internalType": "uint256",
          "name": "amountOut",
          "type": "uint256"
        }
      ],
      "stateMutability": "nonpayable",
      "type": "function"
    }
  ],
  "bytecode": "0x60a060405234801561001057600080fd5b50604051610c45380380610c45833981810160405281019061003291906100e1565b8073ffffffffffffffffffffffffffffffffffffffff1660808173ffffffffffffffffffffffffffffffffffffffff16815250505061010e565b600080fd5b600073ffffffffffffffffffffffffffffffffffffffff82169050919050565b600061009c82610071565b9050919050565b60006100ae82610091565b9050919050565b6100be816100a3565b81146100c957600080fd5b50565b6000815190506100db816100b5565b92915050565b6000602082840312156100f7576100f661006c565b5b6000610105848285016100cc565b91505092915050565b608051610b0f6101366000396000818160e9015281816101d001526102910152610b0f6000f3fe608060405234801561001057600080fd5b506004361061004c5760003560e01c8063089fe6aa1461005157806322f32c881461006f5780634aa4a4fc1461009f578063c31c9c07146100bd575b600080fd5b6100596100db565b604051610066919061057e565b60405180910390f35b61008960048036038101906100849190610632565b6100e1565b60405161009691906106a8565b60405180910390f35b6100a7610277565b6040516100b491906106d2565b60405180910390f35b6100c561028f565b6040516100d2919061074c565b60405180910390f35b610bb881565b600061010e857f0000000000000000000000000000000000000000000000000000000000000000866102b3565b61011a85843087610408565b60008060006040518061010001604052808973ffffffffffffffffffffffffffffffffffffffff16815260200173c02aaa39b223fe8d0a0e5c4f27ead9083c756cc273ffffffffffffffffffffffffffffffffffffffff168152602001610bb862ffffff1681526020018673ffffffffffffffffffffffffffffffffffffffff1681526020014281526020018881526020018481526020018373ffffffffffffffffffffffffffffffffffffffff1681525090507f000000000000000000000000000000000000000000000000000000000000000073ffffffffffffffffffffffffffffffffffffffff1663414bf389826040518263ffffffff1660e01b81526004016102279190610845565b6020604051808303816000875af1158015610246573d6000803e3d6000fd5b505050506040513d601f19601f8201168201806040525081019061026a9190610876565b9350505050949350505050565b73c02aaa39b223fe8d0a0e5c4f27ead9083c756cc281565b7f000000000000000000000000000000000000000000000000000000000000000081565b6000808473ffffffffffffffffffffffffffffffffffffffff1663095ea7b360e01b85856040516024016102e89291906108a3565b604051602081830303815290604052907bffffffffffffffffffffffffffffffffffffffffffffffffffffffff19166020820180517bffffffffffffffffffffffffffffffffffffffffffffffffffffffff8381831617835250505050604051610352919061093d565b6000604051808303816000865af19150503d806000811461038f576040519150601f19603f3d011682016040523d82523d6000602084013e610394565b606091505b50915091508180156103c257506000815114806103c15750808060200190518101906103c0919061098c565b5b5b610401576040517f08c379a00000000000000000000000000000000000000000000000000000000081526004016103f890610a16565b60405180910390fd5b5050505050565b6000808573ffffffffffffffffffffffffffffffffffffffff166323b872dd60e01b86868660405160240161043f93929190610a36565b604051602081830303815290604052907bffffffffffffffffffffffffffffffffffffffffffffffffffffffff19166020820180517bffffffffffffffffffffffffffffffffffffffffffffffffffffffff83818316178352505050506040516104a9919061093d565b6000604051808303816000865af19150503d80600081146104e6576040519150601f19603f3d011682016040523d82523d6000602084013e6104eb565b606091505b50915091508180156105195750600081511480610518575080806020019051810190610517919061098c565b5b5b610558576040517f08c379a000000000000000000000000000000000000000000000000000000000815260040161054f90610ab9565b60405180910390fd5b505050505050565b600062ffffff82169050919050565b61057881610560565b82525050565b6000602082019050610593600083018461056f565b92915050565b600080fd5b600073ffffffffffffffffffffffffffffffffffffffff82169050919050565b60006105c98261059e565b9050919050565b6105d9816105be565b81146105e457600080fd5b50565b6000813590506105f6816105d0565b92915050565b6000819050919050565b61060f816105fc565b811461061a57600080fd5b50565b60008135905061062c81610606565b92915050565b6000806000806080858703121561064c5761064b610599565b5b600061065a878288016105e7565b945050602061066b8782880161061d565b935050604061067c878288016105e7565b925050606061068d878288016105e7565b91505092959194509250565b6106a2816105fc565b82525050565b60006020820190506106bd6000830184610699565b92915050565b6106cc816105be565b82525050565b60006020820190506106e760008301846106c3565b92915050565b6000819050919050565b600061071261070d6107088461059e565b6106ed565b61059e565b9050919050565b6000610724826106f7565b9050919050565b600061073682610719565b9050919050565b6107468161072b565b82525050565b6000602082019050610761600083018461073d565b92915050565b610770816105be565b82525050565b61077f81610560565b82525050565b61078e816105fc565b82525050565b61079d8161059e565b82525050565b610100820160008201516107ba6000850182610767565b5060208201516107cd6020850182610767565b5060408201516107e06040850182610776565b5060608201516107f36060850182610767565b5060808201516108066080850182610785565b5060a082015161081960a0850182610785565b5060c082015161082c60c0850182610785565b5060e082015161083f60e0850182610794565b50505050565b60006101008201905061085b60008301846107a3565b92915050565b60008151905061087081610606565b92915050565b60006020828403121561088c5761088b610599565b5b600061089a84828501610861565b91505092915050565b60006040820190506108b860008301856106c3565b6108c56020830184610699565b9392505050565b600081519050919050565b600081905092915050565b60005b838110156109005780820151818401526020810190506108e5565b60008484015250505050565b6000610917826108cc565b61092181856108d7565b93506109318185602086016108e2565b80840191505092915050565b6000610949828461090c565b915081905092915050565b60008115159050919050565b61096981610954565b811461097457600080fd5b50565b60008151905061098681610960565b92915050565b6000602082840312156109a2576109a1610599565b5b60006109b084828501610977565b91505092915050565b600082825260208201905092915050565b7f5341000000000000000000000000000000000000000000000000000000000000600082015250565b6000610a006002836109b9565b9150610a0b826109ca565b602082019050919050565b60006020820190508181036000830152610a2f816109f3565b9050919050565b6000606082019050610a4b60008301866106c3565b610a5860208301856106c3565b610a656040830184610699565b949350505050565b7f5354460000000000000000000000000000000000000000000000000000000000600082015250565b6000610aa36003836109b9565b9150610aae82610a6d565b602082019050919050565b60006020820190508181036000830152610ad281610a96565b905091905056fea26469706673582212201b57975d47d3be5715765331f0bbb4d2a686019c9d0383a33242d3800812fc2064736f6c634300081c0033",
  "linkReferences": {},
  "deployedLinkReferences": {}
}