{
  "_format": "hh-sol-artifact-1",
  "contractName": "Raffle",
  "sourceName": "contracts/Raffle.sol",
  "abi": [
    {
      "inputs": [],
      "name": "InvalidInitialization",
      "type": "error"
    },
    {
      "inputs": [],
      "name": "NotInitializing",
      "type": "error"
    },
    {
      "inputs": [
        {
          "internalType": "address",
          "name": "owner",
          "type": "address"
        }
      ],
      "name": "OwnableInvalidOwner",
      "type": "error"
    },
    {
      "inputs": [
        {
          "internalType": "address",
          "name": "account",
          "type": "address"
        }
      ],
      "name": "OwnableUnauthorizedAccount",
      "type": "error"
    },
    {
      "anonymous": false,
      "inputs": [
        {
          "indexed": false,
          "internalType": "uint64",
          "name": "version",
          "type": "uint64"
        }
      ],
      "name": "Initialized",
      "type": "event"
    },
    {
      "anonymous": false,
      "inputs": [
        {
          "indexed": true,
          "internalType": "address",
          "name": "previousOwner",
          "type": "address"
        },
        {
          "indexed": true,
          "internalType": "address",
          "name": "newOwner",
          "type": "address"
        }
      ],
      "name": "OwnershipTransferred",
      "type": "event"
    },
    {
      "inputs": [],
      "name": "initialize",
      "outputs": [],
      "stateMutability": "nonpayable",
      "type": "function"
    },
    {
      "inputs": [],
      "name": "owner",
      "outputs": [
        {
          "internalType": "address",
          "name": "",
          "type": "address"
        }
      ],
      "stateMutability": "view",
      "type": "function"
    },
    {
      "inputs": [],
      "name": "renounceOwnership",
      "outputs": [],
      "stateMutability": "nonpayable",
      "type": "function"
    },
    {
      "inputs": [
        {
          "internalType": "address",
          "name": "newOwner",
          "type": "address"
        }
      ],
      "name": "transferOwnership",
      "outputs": [],
      "stateMutability": "nonpayable",
      "type": "function"
    }
  ],
  "bytecode": "0x6080604052348015600f57600080fd5b5061072a8061001f6000396000f3fe608060405234801561001057600080fd5b506004361061004c5760003560e01c8063715018a6146100515780638129fc1c1461005b5780638da5cb5b14610065578063f2fde38b14610083575b600080fd5b61005961009f565b005b6100636100b3565b005b61006d610241565b60405161007a9190610607565b60405180910390f35b61009d60048036038101906100989190610653565b610279565b005b6100a76102ff565b6100b16000610386565b565b60006100bd61045d565b905060008160000160089054906101000a900460ff1615905060008260000160009054906101000a900467ffffffffffffffff1690506000808267ffffffffffffffff1614801561010b5750825b9050600060018367ffffffffffffffff16148015610140575060003073ffffffffffffffffffffffffffffffffffffffff163b145b90508115801561014e575080155b15610185576040517ff92ee8a900000000000000000000000000000000000000000000000000000000815260040160405180910390fd5b60018560000160006101000a81548167ffffffffffffffff021916908367ffffffffffffffff16021790555083156101d55760018560000160086101000a81548160ff0219169083151502179055505b6101de33610471565b831561023a5760008560000160086101000a81548160ff0219169083151502179055507fc7f505b2f371ae2175ee4913f4499e1f2633a7b5936321eed1cdaeb6115181d2600160405161023191906106d9565b60405180910390a15b5050505050565b60008061024c610485565b90508060000160009054906101000a900473ffffffffffffffffffffffffffffffffffffffff1691505090565b6102816102ff565b600073ffffffffffffffffffffffffffffffffffffffff168173ffffffffffffffffffffffffffffffffffffffff16036102f35760006040517f1e4fbdf70000000000000000000000000000000000000000000000000000000081526004016102ea9190610607565b60405180910390fd5b6102fc81610386565b50565b6103076104ad565b73ffffffffffffffffffffffffffffffffffffffff16610325610241565b73ffffffffffffffffffffffffffffffffffffffff1614610384576103486104ad565b6040517f118cdaa700000000000000000000000000000000000000000000000000000000815260040161037b9190610607565b60405180910390fd5b565b6000610390610485565b905060008160000160009054906101000a900473ffffffffffffffffffffffffffffffffffffffff169050828260000160006101000a81548173ffffffffffffffffffffffffffffffffffffffff021916908373ffffffffffffffffffffffffffffffffffffffff1602179055508273ffffffffffffffffffffffffffffffffffffffff168173ffffffffffffffffffffffffffffffffffffffff167f8be0079c531659141344cd1fd0a4f28419497f9722a3daafe3b4186f6b6457e060405160405180910390a3505050565b6000806104686104b5565b90508091505090565b6104796104e0565b61048281610520565b50565b60007f9016d09d72d40fdae2fd8ceac6b6234c7706214fd39c1cd1e609a0528c199300905090565b600033905090565b60007ff0c57e16840df040f15088dc2f81fe391c3923bec73e23a9662efc9c229c6a0060001b905090565b6104e86105a6565b61051e576040517fd7e6bcf800000000000000000000000000000000000000000000000000000000815260040160405180910390fd5b565b6105286104e0565b600073ffffffffffffffffffffffffffffffffffffffff168173ffffffffffffffffffffffffffffffffffffffff160361059a5760006040517f1e4fbdf70000000000000000000000000000000000000000000000000000000081526004016105919190610607565b60405180910390fd5b6105a381610386565b50565b60006105b061045d565b60000160089054906101000a900460ff16905090565b600073ffffffffffffffffffffffffffffffffffffffff82169050919050565b60006105f1826105c6565b9050919050565b610601816105e6565b82525050565b600060208201905061061c60008301846105f8565b92915050565b600080fd5b610630816105e6565b811461063b57600080fd5b50565b60008135905061064d81610627565b92915050565b60006020828403121561066957610668610622565b5b60006106778482850161063e565b91505092915050565b6000819050919050565b600067ffffffffffffffff82169050919050565b6000819050919050565b60006106c36106be6106b984610680565b61069e565b61068a565b9050919050565b6106d3816106a8565b82525050565b60006020820190506106ee60008301846106ca565b9291505056fea2646970667358221220c32657d513c9c9223cb9844a59cc443d118e9159e91887c021a185ef28855c9b64736f6c634300081c0033",
  "linkReferences": {},
  "deployedLinkReferences": {}
}