{
  "_format": "hh-sol-artifact-1",
  "contractName": "ExchangeFeedFetcher",
  "sourceName": "contracts/ExchangeFeedFetcher.sol",
  "abi": [
    {
      "inputs": [],
      "stateMutability": "nonpayable",
      "type": "constructor"
    },
    {
      "inputs": [
        {
          "internalType": "address",
          "name": "tokenFeedAddress",
          "type": "address"
        }
      ],
      "name": "getLatestData",
      "outputs": [
        {
          "internalType": "int256",
          "name": "answer",
          "type": "int256"
        },
        {
          "internalType": "uint8",
          "name": "decimals",
          "type": "uint8"
        }
      ],
      "stateMutability": "view",
      "type": "function"
    }
  ],
  "bytecode": "0x6080604052348015600f57600080fd5b506103fd8061001f6000396000f3fe608060405234801561001057600080fd5b506004361061002b5760003560e01c8063f2f201dc14610030575b600080fd5b61004a600480360381019061004591906101c4565b610061565b604051610058929190610226565b60405180910390f35b600080600083905060008173ffffffffffffffffffffffffffffffffffffffff1663feaf968c6040518163ffffffff1660e01b815260040160a060405180830381865afa1580156100b6573d6000803e3d6000fd5b505050506040513d601f19601f820116820180604052508101906100da91906102f3565b50505091505060008273ffffffffffffffffffffffffffffffffffffffff1663313ce5676040518163ffffffff1660e01b8152600401602060405180830381865afa15801561012d573d6000803e3d6000fd5b505050506040513d601f19601f82011682018060405250810190610151919061039a565b9050818194509450505050915091565b600080fd5b600073ffffffffffffffffffffffffffffffffffffffff82169050919050565b600061019182610166565b9050919050565b6101a181610186565b81146101ac57600080fd5b50565b6000813590506101be81610198565b92915050565b6000602082840312156101da576101d9610161565b5b60006101e8848285016101af565b91505092915050565b6000819050919050565b610204816101f1565b82525050565b600060ff82169050919050565b6102208161020a565b82525050565b600060408201905061023b60008301856101fb565b6102486020830184610217565b9392505050565b600069ffffffffffffffffffff82169050919050565b61026e8161024f565b811461027957600080fd5b50565b60008151905061028b81610265565b92915050565b61029a816101f1565b81146102a557600080fd5b50565b6000815190506102b781610291565b92915050565b6000819050919050565b6102d0816102bd565b81146102db57600080fd5b50565b6000815190506102ed816102c7565b92915050565b600080600080600060a0868803121561030f5761030e610161565b5b600061031d8882890161027c565b955050602061032e888289016102a8565b945050604061033f888289016102de565b9350506060610350888289016102de565b92505060806103618882890161027c565b9150509295509295909350565b6103778161020a565b811461038257600080fd5b50565b6000815190506103948161036e565b92915050565b6000602082840312156103b0576103af610161565b5b60006103be84828501610385565b9150509291505056fea26469706673582212202d433931b17ba4560ee73a41369d2238766dd509b040a9699ec8ecba032cc29664736f6c634300081c0033",
  "linkReferences": {},
  "deployedLinkReferences": {}
}