{
  "_format": "hh-sol-artifact-1",
  "contractName": "Raffle",
  "sourceName": "contracts/Raffle.sol",
  "abi": [
    {
      "inputs": [],
      "name": "InvalidInitialization",
      "type": "error"
    },
    {
      "inputs": [],
      "name": "NotInitializing",
      "type": "error"
    },
    {
      "inputs": [
        {
          "internalType": "address",
          "name": "owner",
          "type": "address"
        }
      ],
      "name": "OwnableInvalidOwner",
      "type": "error"
    },
    {
      "inputs": [
        {
          "internalType": "address",
          "name": "account",
          "type": "address"
        }
      ],
      "name": "OwnableUnauthorizedAccount",
      "type": "error"
    },
    {
      "inputs": [
        {
          "internalType": "address",
          "name": "token",
          "type": "address"
        }
      ],
      "name": "SafeERC20FailedOperation",
      "type": "error"
    },
    {
      "anonymous": false,
      "inputs": [
        {
          "indexed": false,
          "internalType": "uint64",
          "name": "version",
          "type": "uint64"
        }
      ],
      "name": "Initialized",
      "type": "event"
    },
    {
      "anonymous": false,
      "inputs": [
        {
          "indexed": true,
          "internalType": "address",
          "name": "previousOwner",
          "type": "address"
        },
        {
          "indexed": true,
          "internalType": "address",
          "name": "newOwner",
          "type": "address"
        }
      ],
      "name": "OwnershipTransferred",
      "type": "event"
    },
    {
      "anonymous": false,
      "inputs": [
        {
          "indexed": false,
          "internalType": "address",
          "name": "player",
          "type": "address"
        },
        {
          "indexed": true,
          "internalType": "uint256",
          "name": "amountDepositedInUsd",
          "type": "uint256"
        }
      ],
      "name": "PlayerJoined",
      "type": "event"
    },
    {
      "anonymous": false,
      "inputs": [
        {
          "indexed": true,
          "internalType": "address",
          "name": "winner",
          "type": "address"
        },
        {
          "indexed": true,
          "internalType": "uint256",
          "name": "winAmountInUsd",
          "type": "uint256"
        },
        {
          "indexed": true,
          "internalType": "uint256",
          "name": "winAmountInEth",
          "type": "uint256"
        }
      ],
      "name": "WinnerSelected",
      "type": "event"
    },
    {
      "inputs": [
        {
          "internalType": "address",
          "name": "tokenAddress",
          "type": "address"
        },
        {
          "internalType": "address",
          "name": "feedAddress",
          "type": "address"
        }
      ],
      "name": "addAllowedToken",
      "outputs": [],
      "stateMutability": "nonpayable",
      "type": "function"
    },
    {
      "inputs": [],
      "name": "canBePlayed",
      "outputs": [
        {
          "internalType": "bool",
          "name": "",
          "type": "bool"
        }
      ],
      "stateMutability": "view",
      "type": "function"
    },
    {
      "inputs": [
        {
          "internalType": "bytes",
          "name": "",
          "type": "bytes"
        }
      ],
      "name": "checkUpkeep",
      "outputs": [
        {
          "internalType": "bool",
          "name": "upkeepNeeded",
          "type": "bool"
        },
        {
          "internalType": "bytes",
          "name": "",
          "type": "bytes"
        }
      ],
      "stateMutability": "view",
      "type": "function"
    },
    {
      "inputs": [
        {
          "internalType": "address",
          "name": "_tokenAddress",
          "type": "address"
        },
        {
          "internalType": "uint256",
          "name": "_amount",
          "type": "uint256"
        }
      ],
      "name": "deposit",
      "outputs": [],
      "stateMutability": "nonpayable",
      "type": "function"
    },
    {
      "inputs": [],
      "name": "gamesCount",
      "outputs": [
        {
          "internalType": "uint256",
          "name": "",
          "type": "uint256"
        }
      ],
      "stateMutability": "view",
      "type": "function"
    },
    {
      "inputs": [],
      "name": "getPlayers",
      "outputs": [
        {
          "internalType": "address[]",
          "name": "",
          "type": "address[]"
        }
      ],
      "stateMutability": "view",
      "type": "function"
    },
    {
      "inputs": [
        {
          "internalType": "uint256",
          "name": "_interval",
          "type": "uint256"
        },
        {
          "internalType": "address[]",
          "name": "_tokens",
          "type": "address[]"
        },
        {
          "internalType": "address[]",
          "name": "_feed",
          "type": "address[]"
        },
        {
          "internalType": "contract Swapper",
          "name": "_swapper",
          "type": "address"
        },
        {
          "internalType": "contract VRFMock",
          "name": "_vrfMock",
          "type": "address"
        },
        {
          "internalType": "contract VRFv2Consumer",
          "name": "_vrfConsumer",
          "type": "address"
        },
        {
          "internalType": "contract ExchangeFeedFetcher",
          "name": "_feedFetcher",
          "type": "address"
        }
      ],
      "name": "initialize",
      "outputs": [],
      "stateMutability": "nonpayable",
      "type": "function"
    },
    {
      "inputs": [],
      "name": "interval",
      "outputs": [
        {
          "internalType": "uint256",
          "name": "",
          "type": "uint256"
        }
      ],
      "stateMutability": "view",
      "type": "function"
    },
    {
      "inputs": [],
      "name": "lastRaffleTimestamp",
      "outputs": [
        {
          "internalType": "uint256",
          "name": "",
          "type": "uint256"
        }
      ],
      "stateMutability": "view",
      "type": "function"
    },
    {
      "inputs": [],
      "name": "owner",
      "outputs": [
        {
          "internalType": "address",
          "name": "",
          "type": "address"
        }
      ],
      "stateMutability": "view",
      "type": "function"
    },
    {
      "inputs": [
        {
          "internalType": "bytes",
          "name": "",
          "type": "bytes"
        }
      ],
      "name": "performUpkeep",
      "outputs": [],
      "stateMutability": "nonpayable",
      "type": "function"
    },
    {
      "inputs": [
        {
          "internalType": "uint256",
          "name": "",
          "type": "uint256"
        }
      ],
      "name": "players",
      "outputs": [
        {
          "internalType": "address",
          "name": "",
          "type": "address"
        }
      ],
      "stateMutability": "view",
      "type": "function"
    },
    {
      "inputs": [
        {
          "internalType": "address",
          "name": "",
          "type": "address"
        }
      ],
      "name": "playersOfCurrentRaffle",
      "outputs": [
        {
          "internalType": "address",
          "name": "depositedTokenAddress",
          "type": "address"
        },
        {
          "internalType": "uint256",
          "name": "depositedTokenAmount",
          "type": "uint256"
        },
        {
          "internalType": "uint256",
          "name": "amountDepositedInUsd",
          "type": "uint256"
        },
        {
          "internalType": "uint8",
          "name": "decimals",
          "type": "uint8"
        }
      ],
      "stateMutability": "view",
      "type": "function"
    },
    {
      "inputs": [],
      "name": "renounceOwnership",
      "outputs": [],
      "stateMutability": "nonpayable",
      "type": "function"
    },
    {
      "inputs": [
        {
          "internalType": "address",
          "name": "",
          "type": "address"
        }
      ],
      "name": "tokensAllowedWithFeed",
      "outputs": [
        {
          "internalType": "address",
          "name": "",
          "type": "address"
        }
      ],
      "stateMutability": "view",
      "type": "function"
    },
    {
      "inputs": [],
      "name": "totalAmountInEth",
      "outputs": [
        {
          "internalType": "uint256",
          "name": "",
          "type": "uint256"
        }
      ],
      "stateMutability": "view",
      "type": "function"
    },
    {
      "inputs": [],
      "name": "totalAmountInUsd",
      "outputs": [
        {
          "internalType": "uint256",
          "name": "",
          "type": "uint256"
        }
      ],
      "stateMutability": "view",
      "type": "function"
    },
    {
      "inputs": [
        {
          "internalType": "address",
          "name": "newOwner",
          "type": "address"
        }
      ],
      "name": "transferOwnership",
      "outputs": [],
      "stateMutability": "nonpayable",
      "type": "function"
    },
    {
      "stateMutability": "payable",
      "type": "receive"
    }
  ],
  "bytecode": "0x6080604052348015600f57600080fd5b50612b538061001f6000396000f3fe60806040526004361061010d5760003560e01c8063981e0b1d11610095578063ca459e0311610064578063ca459e031461033f578063d0faec601461037c578063f2fde38b146103bc578063f71d96cb146103e5578063fb632b7c1461042257610114565b8063981e0b1d14610295578063ba6771fb146102c0578063bb36c91e146102eb578063be3f57851461031657610114565b80636e04ff0d116100dc5780636e04ff0d146101bf578063715018a6146101fd5780638b5b9ccc146102145780638da5cb5b1461023f578063947a36fb1461026a57610114565b80630c636b0214610119578063305e94cd146101445780634585e33b1461016d57806347e7ef241461019657610114565b3661011457005b600080fd5b34801561012557600080fd5b5061012e61044d565b60405161013b9190611d2c565b60405180910390f35b34801561015057600080fd5b5061016b60048036038101906101669190611db9565b610453565b005b34801561017957600080fd5b50610194600480360381019061018f9190611e5e565b6104dd565b005b3480156101a257600080fd5b506101bd60048036038101906101b89190611ed7565b61051a565b005b3480156101cb57600080fd5b506101e660048036038101906101e19190611e5e565b610b7f565b6040516101f4929190611fc2565b60405180910390f35b34801561020957600080fd5b50610212610bb7565b005b34801561022057600080fd5b50610229610bcb565b60405161023691906120b0565b60405180910390f35b34801561024b57600080fd5b50610254610c59565b60405161026191906120e1565b60405180910390f35b34801561027657600080fd5b5061027f610c91565b60405161028c9190611d2c565b60405180910390f35b3480156102a157600080fd5b506102aa610c97565b6040516102b79190611d2c565b60405180910390f35b3480156102cc57600080fd5b506102d5610c9d565b6040516102e29190611d2c565b60405180910390f35b3480156102f757600080fd5b50610300610ca3565b60405161030d91906120fc565b60405180910390f35b34801561032257600080fd5b5061033d6004803603810190610338919061234d565b610cb6565b005b34801561034b57600080fd5b5061036660048036038101906103619190612427565b611036565b60405161037391906120e1565b60405180910390f35b34801561038857600080fd5b506103a3600480360381019061039e9190612427565b611069565b6040516103b39493929190612470565b60405180910390f35b3480156103c857600080fd5b506103e360048036038101906103de9190612427565b6110c6565b005b3480156103f157600080fd5b5061040c600480360381019061040791906124b5565b61114c565b60405161041991906120e1565b60405180910390f35b34801561042e57600080fd5b5061043761118b565b6040516104449190611d2c565b60405180910390f35b60065481565b61045b611191565b80600460008473ffffffffffffffffffffffffffffffffffffffff1673ffffffffffffffffffffffffffffffffffffffff16815260200190815260200160002060006101000a81548173ffffffffffffffffffffffffffffffffffffffff021916908373ffffffffffffffffffffffffffffffffffffffff1602179055505050565b600860009054906101000a900460ff1680156105085750600754600654426105059190612511565b10155b1561051657610515611218565b5b5050565b600073ffffffffffffffffffffffffffffffffffffffff16600460008473ffffffffffffffffffffffffffffffffffffffff1673ffffffffffffffffffffffffffffffffffffffff16815260200190815260200160002060009054906101000a900473ffffffffffffffffffffffffffffffffffffffff1673ffffffffffffffffffffffffffffffffffffffff16036105e8576040517f08c379a00000000000000000000000000000000000000000000000000000000081526004016105df906125a2565b60405180910390fd5b6000811161062b576040517f08c379a00000000000000000000000000000000000000000000000000000000081526004016106229061260e565b60405180910390fd5b600080600360009054906101000a900473ffffffffffffffffffffffffffffffffffffffff1673ffffffffffffffffffffffffffffffffffffffff1663f2f201dc600460008773ffffffffffffffffffffffffffffffffffffffff1673ffffffffffffffffffffffffffffffffffffffff16815260200190815260200160002060009054906101000a900473ffffffffffffffffffffffffffffffffffffffff166040518263ffffffff1660e01b81526004016106e891906120e1565b6040805180830381865afa158015610704573d6000803e3d6000fd5b505050506040513d601f19601f820116820180604052508101906107289190612690565b915091506000821361076f576040517f08c379a000000000000000000000000000000000000000000000000000000000815260040161076690612742565b60405180910390fd5b61079c3330858773ffffffffffffffffffffffffffffffffffffffff166114ff909392919063ffffffff16565b6107e760008054906101000a900473ffffffffffffffffffffffffffffffffffffffff16848673ffffffffffffffffffffffffffffffffffffffff166115819092919063ffffffff16565b60008060009054906101000a900473ffffffffffffffffffffffffffffffffffffffff1673ffffffffffffffffffffffffffffffffffffffff166322f32c88868630306040518563ffffffff1660e01b81526004016108499493929190612762565b6020604051808303816000875af1158015610868573d6000803e3d6000fd5b505050506040513d601f19601f8201168201806040525081019061088c91906127bc565b905060008054906101000a900473ffffffffffffffffffffffffffffffffffffffff1673ffffffffffffffffffffffffffffffffffffffff16634aa4a4fc6040518163ffffffff1660e01b8152600401602060405180830381865afa1580156108f9573d6000803e3d6000fd5b505050506040513d601f19601f8201168201806040525081019061091d91906127fe565b73ffffffffffffffffffffffffffffffffffffffff16632e1a7d4d826040518263ffffffff1660e01b81526004016109559190611d2c565b600060405180830381600087803b15801561096f57600080fd5b505af1158015610983573d6000803e3d6000fd5b5050505080600a6000828254610999919061282b565b92505081905550600084846109ae919061285f565b9050600b339080600181540180825580915050600190039060005260206000200160009091909190916101000a81548173ffffffffffffffffffffffffffffffffffffffff021916908373ffffffffffffffffffffffffffffffffffffffff16021790555060405180608001604052808773ffffffffffffffffffffffffffffffffffffffff1681526020018681526020018281526020018460ff16815250600c60003373ffffffffffffffffffffffffffffffffffffffff1673ffffffffffffffffffffffffffffffffffffffff16815260200190815260200160002060008201518160000160006101000a81548173ffffffffffffffffffffffffffffffffffffffff021916908373ffffffffffffffffffffffffffffffffffffffff160217905550602082015181600101556040820151816002015560608201518160030160006101000a81548160ff021916908360ff1602179055509050508060096000828254610b1d919061282b565b925050819055506001600860006101000a81548160ff021916908315150217905550807f3330a6773675f31f62070870f40379f8c6d42e3761410011a4dfc42b18043d2f33604051610b6f91906120e1565b60405180910390a2505050505050565b60006060600860009054906101000a900460ff168015610bae575060075460065442610bab9190612511565b10155b91509250929050565b610bbf611191565b610bc9600061161d565b565b6060600b805480602002602001604051908101604052809291908181526020018280548015610c4f57602002820191906000526020600020905b8160009054906101000a900473ffffffffffffffffffffffffffffffffffffffff1673ffffffffffffffffffffffffffffffffffffffff1681526020019060010190808311610c05575b5050505050905090565b600080610c646116f4565b90508060000160009054906101000a900473ffffffffffffffffffffffffffffffffffffffff1691505090565b60075481565b600a5481565b60095481565b600860009054906101000a900460ff1681565b6000610cc061171c565b905060008160000160089054906101000a900460ff1615905060008260000160009054906101000a900467ffffffffffffffff1690506000808267ffffffffffffffff16148015610d0e5750825b9050600060018367ffffffffffffffff16148015610d43575060003073ffffffffffffffffffffffffffffffffffffffff163b145b905081158015610d51575080155b15610d88576040517ff92ee8a900000000000000000000000000000000000000000000000000000000815260040160405180910390fd5b60018560000160006101000a81548167ffffffffffffffff021916908367ffffffffffffffff1602179055508315610dd85760018560000160086101000a81548160ff0219169083151502179055505b89518a5114610de657600080fd5b610def33611730565b886000806101000a81548173ffffffffffffffffffffffffffffffffffffffff021916908373ffffffffffffffffffffffffffffffffffffffff16021790555087600160006101000a81548173ffffffffffffffffffffffffffffffffffffffff021916908373ffffffffffffffffffffffffffffffffffffffff16021790555086600260006101000a81548173ffffffffffffffffffffffffffffffffffffffff021916908373ffffffffffffffffffffffffffffffffffffffff16021790555085600360006101000a81548173ffffffffffffffffffffffffffffffffffffffff021916908373ffffffffffffffffffffffffffffffffffffffff1602179055508b6007819055504260068190555060005b8b51811015610fcb578a8181518110610f1f57610f1e6128a1565b5b6020026020010151600460008e8481518110610f3e57610f3d6128a1565b5b602002602001015173ffffffffffffffffffffffffffffffffffffffff1673ffffffffffffffffffffffffffffffffffffffff16815260200190815260200160002060006101000a81548173ffffffffffffffffffffffffffffffffffffffff021916908373ffffffffffffffffffffffffffffffffffffffff1602179055508080600101915050610f03565b5083156110285760008560000160086101000a81548160ff0219169083151502179055507fc7f505b2f371ae2175ee4913f4499e1f2633a7b5936321eed1cdaeb6115181d2600160405161101f9190612929565b60405180910390a15b505050505050505050505050565b60046020528060005260406000206000915054906101000a900473ffffffffffffffffffffffffffffffffffffffff1681565b600c6020528060005260406000206000915090508060000160009054906101000a900473ffffffffffffffffffffffffffffffffffffffff16908060010154908060020154908060030160009054906101000a900460ff16905084565b6110ce611191565b600073ffffffffffffffffffffffffffffffffffffffff168173ffffffffffffffffffffffffffffffffffffffff16036111405760006040517f1e4fbdf700000000000000000000000000000000000000000000000000000000815260040161113791906120e1565b60405180910390fd5b6111498161161d565b50565b600b818154811061115c57600080fd5b906000526020600020016000915054906101000a900473ffffffffffffffffffffffffffffffffffffffff1681565b60055481565b611199611744565b73ffffffffffffffffffffffffffffffffffffffff166111b7610c59565b73ffffffffffffffffffffffffffffffffffffffff1614611216576111da611744565b6040517f118cdaa700000000000000000000000000000000000000000000000000000000815260040161120d91906120e1565b60405180910390fd5b565b600061122261174c565b90506000600954826112349190612973565b905060008080600090505b600b8054905081101561133557600c6000600b8381548110611264576112636128a1565b5b9060005260206000200160009054906101000a900473ffffffffffffffffffffffffffffffffffffffff1673ffffffffffffffffffffffffffffffffffffffff1673ffffffffffffffffffffffffffffffffffffffff16815260200190815260200160002060020154836112d8919061282b565b92508284101561132857600b81815481106112f6576112f56128a1565b5b9060005260206000200160009054906101000a900473ffffffffffffffffffffffffffffffffffffffff169150611335565b808060010191505061123f565b508073ffffffffffffffffffffffffffffffffffffffff166108fc600a549081150290604051600060405180830381858888f1935050505015801561137e573d6000803e3d6000fd5b504260068190555060056000815480929190611399906129a4565b91905055506000600860006101000a81548160ff02191690831515021790555060005b600b805490508110156114a157600c6000600b83815481106113e1576113e06128a1565b5b9060005260206000200160009054906101000a900473ffffffffffffffffffffffffffffffffffffffff1673ffffffffffffffffffffffffffffffffffffffff1673ffffffffffffffffffffffffffffffffffffffff168152602001908152602001600020600080820160006101000a81549073ffffffffffffffffffffffffffffffffffffffff0219169055600182016000905560028201600090556003820160006101000a81549060ff0219169055505080806001019150506113bc565b50600b60006114b09190611cd5565b600a546009548273ffffffffffffffffffffffffffffffffffffffff167f866efae43947560fe9d0de9013bc323d5718730d5c1543261b48a7bcb0717b9360405160405180910390a450505050565b61157b848573ffffffffffffffffffffffffffffffffffffffff166323b872dd868686604051602401611534939291906129ec565b604051602081830303815290604052915060e01b6020820180517bffffffffffffffffffffffffffffffffffffffffffffffffffffffff83818316178352505050506119b3565b50505050565b60008373ffffffffffffffffffffffffffffffffffffffff1663dd62ed3e30856040518363ffffffff1660e01b81526004016115be929190612a23565b602060405180830381865afa1580156115db573d6000803e3d6000fd5b505050506040513d601f19601f820116820180604052508101906115ff91906127bc565b905061161784848484611612919061282b565b611a55565b50505050565b60006116276116f4565b905060008160000160009054906101000a900473ffffffffffffffffffffffffffffffffffffffff169050828260000160006101000a81548173ffffffffffffffffffffffffffffffffffffffff021916908373ffffffffffffffffffffffffffffffffffffffff1602179055508273ffffffffffffffffffffffffffffffffffffffff168173ffffffffffffffffffffffffffffffffffffffff167f8be0079c531659141344cd1fd0a4f28419497f9722a3daafe3b4186f6b6457e060405160405180910390a3505050565b60007f9016d09d72d40fdae2fd8ceac6b6234c7706214fd39c1cd1e609a0528c199300905090565b600080611727611b64565b90508091505090565b611738611b8f565b61174181611bcf565b50565b600033905090565b6000600260009054906101000a900473ffffffffffffffffffffffffffffffffffffffff1673ffffffffffffffffffffffffffffffffffffffff1663e0c862896040518163ffffffff1660e01b8152600401600060405180830381600087803b1580156117b857600080fd5b505af11580156117cc573d6000803e3d6000fd5b50505050600160009054906101000a900473ffffffffffffffffffffffffffffffffffffffff1673ffffffffffffffffffffffffffffffffffffffff1663808974ff600260009054906101000a900473ffffffffffffffffffffffffffffffffffffffff1673ffffffffffffffffffffffffffffffffffffffff1663e89e106a6040518163ffffffff1660e01b8152600401602060405180830381865afa15801561187b573d6000803e3d6000fd5b505050506040513d601f19601f8201168201806040525081019061189f91906127bc565b600260009054906101000a900473ffffffffffffffffffffffffffffffffffffffff166040518363ffffffff1660e01b81526004016118df929190612a4c565b600060405180830381600087803b1580156118f957600080fd5b505af115801561190d573d6000803e3d6000fd5b50505050600260009054906101000a900473ffffffffffffffffffffffffffffffffffffffff1673ffffffffffffffffffffffffffffffffffffffff1663f6eaffc860006040518263ffffffff1660e01b815260040161196d9190612ab0565b602060405180830381865afa15801561198a573d6000803e3d6000fd5b505050506040513d601f19601f820116820180604052508101906119ae91906127bc565b905090565b600080602060008451602086016000885af1806119d6576040513d6000823e3d81fd5b3d9250600051915050600082146119f1576001811415611a0d565b60008473ffffffffffffffffffffffffffffffffffffffff163b145b15611a4f57836040517f5274afe7000000000000000000000000000000000000000000000000000000008152600401611a4691906120e1565b60405180910390fd5b50505050565b60008373ffffffffffffffffffffffffffffffffffffffff1663095ea7b38484604051602401611a86929190612acb565b604051602081830303815290604052915060e01b6020820180517bffffffffffffffffffffffffffffffffffffffffffffffffffffffff83818316178352505050509050611ad48482611c55565b611b5e57611b53848573ffffffffffffffffffffffffffffffffffffffff1663095ea7b3866000604051602401611b0c929190612af4565b604051602081830303815290604052915060e01b6020820180517bffffffffffffffffffffffffffffffffffffffffffffffffffffffff83818316178352505050506119b3565b611b5d84826119b3565b5b50505050565b60007ff0c57e16840df040f15088dc2f81fe391c3923bec73e23a9662efc9c229c6a0060001b905090565b611b97611cb5565b611bcd576040517fd7e6bcf800000000000000000000000000000000000000000000000000000000815260040160405180910390fd5b565b611bd7611b8f565b600073ffffffffffffffffffffffffffffffffffffffff168173ffffffffffffffffffffffffffffffffffffffff1603611c495760006040517f1e4fbdf7000000000000000000000000000000000000000000000000000000008152600401611c4091906120e1565b60405180910390fd5b611c528161161d565b50565b6000806000806020600086516020880160008a5af192503d91506000519050828015611caa575060008214611c8d5760018114611ca9565b60008673ffffffffffffffffffffffffffffffffffffffff163b115b5b935050505092915050565b6000611cbf61171c565b60000160089054906101000a900460ff16905090565b5080546000825590600052602060002090810190611cf39190611cf6565b50565b5b80821115611d0f576000816000905550600101611cf7565b5090565b6000819050919050565b611d2681611d13565b82525050565b6000602082019050611d416000830184611d1d565b92915050565b6000604051905090565b600080fd5b600080fd5b600073ffffffffffffffffffffffffffffffffffffffff82169050919050565b6000611d8682611d5b565b9050919050565b611d9681611d7b565b8114611da157600080fd5b50565b600081359050611db381611d8d565b92915050565b60008060408385031215611dd057611dcf611d51565b5b6000611dde85828601611da4565b9250506020611def85828601611da4565b9150509250929050565b600080fd5b600080fd5b600080fd5b60008083601f840112611e1e57611e1d611df9565b5b8235905067ffffffffffffffff811115611e3b57611e3a611dfe565b5b602083019150836001820283011115611e5757611e56611e03565b5b9250929050565b60008060208385031215611e7557611e74611d51565b5b600083013567ffffffffffffffff811115611e9357611e92611d56565b5b611e9f85828601611e08565b92509250509250929050565b611eb481611d13565b8114611ebf57600080fd5b50565b600081359050611ed181611eab565b92915050565b60008060408385031215611eee57611eed611d51565b5b6000611efc85828601611da4565b9250506020611f0d85828601611ec2565b9150509250929050565b60008115159050919050565b611f2c81611f17565b82525050565b600081519050919050565b600082825260208201905092915050565b60005b83811015611f6c578082015181840152602081019050611f51565b60008484015250505050565b6000601f19601f8301169050919050565b6000611f9482611f32565b611f9e8185611f3d565b9350611fae818560208601611f4e565b611fb781611f78565b840191505092915050565b6000604082019050611fd76000830185611f23565b8181036020830152611fe98184611f89565b90509392505050565b600081519050919050565b600082825260208201905092915050565b6000819050602082019050919050565b61202781611d7b565b82525050565b6000612039838361201e565b60208301905092915050565b6000602082019050919050565b600061205d82611ff2565b6120678185611ffd565b93506120728361200e565b8060005b838110156120a357815161208a888261202d565b975061209583612045565b925050600181019050612076565b5085935050505092915050565b600060208201905081810360008301526120ca8184612052565b905092915050565b6120db81611d7b565b82525050565b60006020820190506120f660008301846120d2565b92915050565b60006020820190506121116000830184611f23565b92915050565b7f4e487b7100000000000000000000000000000000000000000000000000000000600052604160045260246000fd5b61214f82611f78565b810181811067ffffffffffffffff8211171561216e5761216d612117565b5b80604052505050565b6000612181611d47565b905061218d8282612146565b919050565b600067ffffffffffffffff8211156121ad576121ac612117565b5b602082029050602081019050919050565b60006121d16121cc84612192565b612177565b905080838252602082019050602084028301858111156121f4576121f3611e03565b5b835b8181101561221d57806122098882611da4565b8452602084019350506020810190506121f6565b5050509392505050565b600082601f83011261223c5761223b611df9565b5b813561224c8482602086016121be565b91505092915050565b600061226082611d7b565b9050919050565b61227081612255565b811461227b57600080fd5b50565b60008135905061228d81612267565b92915050565b600061229e82611d7b565b9050919050565b6122ae81612293565b81146122b957600080fd5b50565b6000813590506122cb816122a5565b92915050565b60006122dc82611d7b565b9050919050565b6122ec816122d1565b81146122f757600080fd5b50565b600081359050612309816122e3565b92915050565b600061231a82611d7b565b9050919050565b61232a8161230f565b811461233557600080fd5b50565b60008135905061234781612321565b92915050565b600080600080600080600060e0888a03121561236c5761236b611d51565b5b600061237a8a828b01611ec2565b975050602088013567ffffffffffffffff81111561239b5761239a611d56565b5b6123a78a828b01612227565b965050604088013567ffffffffffffffff8111156123c8576123c7611d56565b5b6123d48a828b01612227565b95505060606123e58a828b0161227e565b94505060806123f68a828b016122bc565b93505060a06124078a828b016122fa565b92505060c06124188a828b01612338565b91505092959891949750929550565b60006020828403121561243d5761243c611d51565b5b600061244b84828501611da4565b91505092915050565b600060ff82169050919050565b61246a81612454565b82525050565b600060808201905061248560008301876120d2565b6124926020830186611d1d565b61249f6040830185611d1d565b6124ac6060830184612461565b95945050505050565b6000602082840312156124cb576124ca611d51565b5b60006124d984828501611ec2565b91505092915050565b7f4e487b7100000000000000000000000000000000000000000000000000000000600052601160045260246000fd5b600061251c82611d13565b915061252783611d13565b925082820390508181111561253f5761253e6124e2565b5b92915050565b600082825260208201905092915050565b7f546f6b656e206973206e6f7420616c6c6f776564000000000000000000000000600082015250565b600061258c601483612545565b915061259782612556565b602082019050919050565b600060208201905081810360008301526125bb8161257f565b9050919050565b7f596f75206e65656420746f206465706f73697420736f6d657468696e67000000600082015250565b60006125f8601d83612545565b9150612603826125c2565b602082019050919050565b60006020820190508181036000830152612627816125eb565b9050919050565b6000819050919050565b6126418161262e565b811461264c57600080fd5b50565b60008151905061265e81612638565b92915050565b61266d81612454565b811461267857600080fd5b50565b60008151905061268a81612664565b92915050565b600080604083850312156126a7576126a6611d51565b5b60006126b58582860161264f565b92505060206126c68582860161267b565b9150509250929050565b7f546f6b656e206973206e6f7420737570706f72746564206f72206e6f7420617660008201527f61696c61626c6520617420746865206d6f6d656e740000000000000000000000602082015250565b600061272c603583612545565b9150612737826126d0565b604082019050919050565b6000602082019050818103600083015261275b8161271f565b9050919050565b600060808201905061277760008301876120d2565b6127846020830186611d1d565b61279160408301856120d2565b61279e60608301846120d2565b95945050505050565b6000815190506127b681611eab565b92915050565b6000602082840312156127d2576127d1611d51565b5b60006127e0848285016127a7565b91505092915050565b6000815190506127f881611d8d565b92915050565b60006020828403121561281457612813611d51565b5b6000612822848285016127e9565b91505092915050565b600061283682611d13565b915061284183611d13565b9250828201905080821115612859576128586124e2565b5b92915050565b600061286a82611d13565b915061287583611d13565b925082820261288381611d13565b9150828204841483151761289a576128996124e2565b5b5092915050565b7f4e487b7100000000000000000000000000000000000000000000000000000000600052603260045260246000fd5b6000819050919050565b600067ffffffffffffffff82169050919050565b6000819050919050565b600061291361290e612909846128d0565b6128ee565b6128da565b9050919050565b612923816128f8565b82525050565b600060208201905061293e600083018461291a565b92915050565b7f4e487b7100000000000000000000000000000000000000000000000000000000600052601260045260246000fd5b600061297e82611d13565b915061298983611d13565b92508261299957612998612944565b5b828206905092915050565b60006129af82611d13565b91507fffffffffffffffffffffffffffffffffffffffffffffffffffffffffffffffff82036129e1576129e06124e2565b5b600182019050919050565b6000606082019050612a0160008301866120d2565b612a0e60208301856120d2565b612a1b6040830184611d1d565b949350505050565b6000604082019050612a3860008301856120d2565b612a4560208301846120d2565b9392505050565b6000604082019050612a616000830185611d1d565b612a6e60208301846120d2565b9392505050565b6000819050919050565b6000612a9a612a95612a9084612a75565b6128ee565b611d13565b9050919050565b612aaa81612a7f565b82525050565b6000602082019050612ac56000830184612aa1565b92915050565b6000604082019050612ae060008301856120d2565b612aed6020830184611d1d565b9392505050565b6000604082019050612b0960008301856120d2565b612b166020830184612aa1565b939250505056fea2646970667358221220522551900fc099387b0cfbcea0f8fb47323d711b22c10d8a250f1972913396cf64736f6c634300081c0033",
  "linkReferences": {},
  "deployedLinkReferences": {}
}