{
  "_format": "hh-sol-artifact-1",
  "contractName": "Raffle",
  "sourceName": "contracts/Raffle.sol",
  "abi": [
    {
      "inputs": [],
      "name": "InvalidInitialization",
      "type": "error"
    },
    {
      "inputs": [],
      "name": "NotInitializing",
      "type": "error"
    },
    {
      "inputs": [
        {
          "internalType": "address",
          "name": "owner",
          "type": "address"
        }
      ],
      "name": "OwnableInvalidOwner",
      "type": "error"
    },
    {
      "inputs": [
        {
          "internalType": "address",
          "name": "account",
          "type": "address"
        }
      ],
      "name": "OwnableUnauthorizedAccount",
      "type": "error"
    },
    {
      "inputs": [
        {
          "internalType": "address",
          "name": "token",
          "type": "address"
        }
      ],
      "name": "SafeERC20FailedOperation",
      "type": "error"
    },
    {
      "anonymous": false,
      "inputs": [
        {
          "indexed": false,
          "internalType": "uint64",
          "name": "version",
          "type": "uint64"
        }
      ],
      "name": "Initialized",
      "type": "event"
    },
    {
      "anonymous": false,
      "inputs": [
        {
          "indexed": true,
          "internalType": "address",
          "name": "previousOwner",
          "type": "address"
        },
        {
          "indexed": true,
          "internalType": "address",
          "name": "newOwner",
          "type": "address"
        }
      ],
      "name": "OwnershipTransferred",
      "type": "event"
    },
    {
      "anonymous": false,
      "inputs": [
        {
          "indexed": false,
          "internalType": "address",
          "name": "player",
          "type": "address"
        },
        {
          "indexed": true,
          "internalType": "uint256",
          "name": "amountDepositedInUsd",
          "type": "uint256"
        }
      ],
      "name": "PlayerJoined",
      "type": "event"
    },
    {
      "anonymous": false,
      "inputs": [
        {
          "indexed": true,
          "internalType": "address",
          "name": "winner",
          "type": "address"
        },
        {
          "indexed": true,
          "internalType": "uint256",
          "name": "winAmountInUsd",
          "type": "uint256"
        },
        {
          "indexed": true,
          "internalType": "uint256",
          "name": "winAmountInEth",
          "type": "uint256"
        }
      ],
      "name": "WinnerSelected",
      "type": "event"
    },
    {
      "inputs": [
        {
          "internalType": "address",
          "name": "tokenAddress",
          "type": "address"
        },
        {
          "internalType": "address",
          "name": "feedAddress",
          "type": "address"
        }
      ],
      "name": "addAllowedToken",
      "outputs": [],
      "stateMutability": "nonpayable",
      "type": "function"
    },
    {
      "inputs": [
        {
          "internalType": "bytes",
          "name": "",
          "type": "bytes"
        }
      ],
      "name": "checkUpkeep",
      "outputs": [
        {
          "internalType": "bool",
          "name": "upkeepNeeded",
          "type": "bool"
        },
        {
          "internalType": "bytes",
          "name": "",
          "type": "bytes"
        }
      ],
      "stateMutability": "view",
      "type": "function"
    },
    {
      "inputs": [
        {
          "internalType": "address",
          "name": "_tokenAddress",
          "type": "address"
        },
        {
          "internalType": "uint256",
          "name": "_amount",
          "type": "uint256"
        }
      ],
      "name": "deposit",
      "outputs": [],
      "stateMutability": "nonpayable",
      "type": "function"
    },
    {
      "inputs": [],
      "name": "gamesCount",
      "outputs": [
        {
          "internalType": "uint256",
          "name": "",
          "type": "uint256"
        }
      ],
      "stateMutability": "view",
      "type": "function"
    },
    {
      "inputs": [],
      "name": "getPlayers",
      "outputs": [
        {
          "components": [
            {
              "internalType": "address",
              "name": "playerAddress",
              "type": "address"
            },
            {
              "internalType": "address",
              "name": "depositedTokenAddress",
              "type": "address"
            },
            {
              "internalType": "uint256",
              "name": "depositedTokenAmount",
              "type": "uint256"
            },
            {
              "internalType": "uint256",
              "name": "amountDepositedInUsd",
              "type": "uint256"
            },
            {
              "internalType": "uint8",
              "name": "decimals",
              "type": "uint8"
            },
            {
              "internalType": "uint256",
              "name": "stake",
              "type": "uint256"
            }
          ],
          "internalType": "struct Raffle.ResultPlayer[]",
          "name": "",
          "type": "tuple[]"
        }
      ],
      "stateMutability": "view",
      "type": "function"
    },
    {
      "inputs": [
        {
          "internalType": "uint256",
          "name": "_interval",
          "type": "uint256"
        },
        {
          "internalType": "address[]",
          "name": "_tokens",
          "type": "address[]"
        },
        {
          "internalType": "address[]",
          "name": "_feed",
          "type": "address[]"
        },
        {
          "internalType": "contract Swapper",
          "name": "_swapper",
          "type": "address"
        },
        {
          "internalType": "contract VRFMock",
          "name": "_vrfMock",
          "type": "address"
        },
        {
          "internalType": "contract VRFv2Consumer",
          "name": "_vrfConsumer",
          "type": "address"
        },
        {
          "internalType": "contract ExchangeFeedFetcher",
          "name": "_feedFetcher",
          "type": "address"
        }
      ],
      "name": "initialize",
      "outputs": [],
      "stateMutability": "nonpayable",
      "type": "function"
    },
    {
      "inputs": [],
      "name": "interval",
      "outputs": [
        {
          "internalType": "uint256",
          "name": "",
          "type": "uint256"
        }
      ],
      "stateMutability": "view",
      "type": "function"
    },
    {
      "inputs": [],
      "name": "lastDepositTimestamp",
      "outputs": [
        {
          "internalType": "uint256",
          "name": "",
          "type": "uint256"
        }
      ],
      "stateMutability": "view",
      "type": "function"
    },
    {
      "inputs": [],
      "name": "owner",
      "outputs": [
        {
          "internalType": "address",
          "name": "",
          "type": "address"
        }
      ],
      "stateMutability": "view",
      "type": "function"
    },
    {
      "inputs": [
        {
          "internalType": "bytes",
          "name": "",
          "type": "bytes"
        }
      ],
      "name": "performUpkeep",
      "outputs": [],
      "stateMutability": "nonpayable",
      "type": "function"
    },
    {
      "inputs": [
        {
          "internalType": "uint256",
          "name": "",
          "type": "uint256"
        }
      ],
      "name": "players",
      "outputs": [
        {
          "internalType": "address",
          "name": "",
          "type": "address"
        }
      ],
      "stateMutability": "view",
      "type": "function"
    },
    {
      "inputs": [
        {
          "internalType": "address",
          "name": "",
          "type": "address"
        }
      ],
      "name": "playersOfCurrentRaffle",
      "outputs": [
        {
          "internalType": "address",
          "name": "depositedTokenAddress",
          "type": "address"
        },
        {
          "internalType": "uint256",
          "name": "depositedTokenAmount",
          "type": "uint256"
        },
        {
          "internalType": "uint256",
          "name": "amountDepositedInUsd",
          "type": "uint256"
        },
        {
          "internalType": "uint8",
          "name": "decimals",
          "type": "uint8"
        }
      ],
      "stateMutability": "view",
      "type": "function"
    },
    {
      "inputs": [],
      "name": "renounceOwnership",
      "outputs": [],
      "stateMutability": "nonpayable",
      "type": "function"
    },
    {
      "inputs": [
        {
          "internalType": "address",
          "name": "",
          "type": "address"
        }
      ],
      "name": "tokensAllowedWithFeed",
      "outputs": [
        {
          "internalType": "address",
          "name": "",
          "type": "address"
        }
      ],
      "stateMutability": "view",
      "type": "function"
    },
    {
      "inputs": [],
      "name": "totalAmountInEth",
      "outputs": [
        {
          "internalType": "uint256",
          "name": "",
          "type": "uint256"
        }
      ],
      "stateMutability": "view",
      "type": "function"
    },
    {
      "inputs": [],
      "name": "totalAmountInUsd",
      "outputs": [
        {
          "internalType": "uint256",
          "name": "",
          "type": "uint256"
        }
      ],
      "stateMutability": "view",
      "type": "function"
    },
    {
      "inputs": [
        {
          "internalType": "address",
          "name": "newOwner",
          "type": "address"
        }
      ],
      "name": "transferOwnership",
      "outputs": [],
      "stateMutability": "nonpayable",
      "type": "function"
    },
    {
      "stateMutability": "payable",
      "type": "receive"
    }
  ],
  "bytecode": "0x6080604052348015600f57600080fd5b506130a28061001f6000396000f3fe6080604052600436106101025760003560e01c8063981e0b1d11610095578063ca459e0311610064578063ca459e0314610309578063d0faec6014610346578063f2fde38b14610386578063f71d96cb146103af578063fb632b7c146103ec57610109565b8063981e0b1d1461025f578063ba6771fb1461028a578063be3f5785146102b5578063c3457c1c146102de57610109565b8063715018a6116100d1578063715018a6146101c75780638b5b9ccc146101de5780638da5cb5b14610209578063947a36fb1461023457610109565b8063305e94cd1461010e5780634585e33b1461013757806347e7ef24146101605780636e04ff0d1461018957610109565b3661010957005b600080fd5b34801561011a57600080fd5b50610135600480360381019061013091906121b9565b610417565b005b34801561014357600080fd5b5061015e6004803603810190610159919061225e565b6104a1565b005b34801561016c57600080fd5b50610187600480360381019061018291906122e1565b6104d7565b005b34801561019557600080fd5b506101b060048036038101906101ab919061225e565b610bf9565b6040516101be9291906123cc565b60405180910390f35b3480156101d357600080fd5b506101dc610c2a565b005b3480156101ea57600080fd5b506101f3610c3e565b6040516102009190612560565b60405180910390f35b34801561021557600080fd5b5061021e611040565b60405161022b9190612591565b60405180910390f35b34801561024057600080fd5b50610249611078565b60405161025691906125bb565b60405180910390f35b34801561026b57600080fd5b5061027461107e565b60405161028191906125bb565b60405180910390f35b34801561029657600080fd5b5061029f611084565b6040516102ac91906125bb565b60405180910390f35b3480156102c157600080fd5b506102dc60048036038101906102d7919061280c565b61108a565b005b3480156102ea57600080fd5b506102f361140a565b60405161030091906125bb565b60405180910390f35b34801561031557600080fd5b50610330600480360381019061032b91906128e6565b611410565b60405161033d9190612591565b60405180910390f35b34801561035257600080fd5b5061036d600480360381019061036891906128e6565b611443565b60405161037d9493929190612922565b60405180910390f35b34801561039257600080fd5b506103ad60048036038101906103a891906128e6565b6114a0565b005b3480156103bb57600080fd5b506103d660048036038101906103d19190612967565b611526565b6040516103e39190612591565b60405180910390f35b3480156103f857600080fd5b50610401611565565b60405161040e91906125bb565b60405180910390f35b61041f61156b565b80600460008473ffffffffffffffffffffffffffffffffffffffff1673ffffffffffffffffffffffffffffffffffffffff16815260200190815260200160002060006101000a81548173ffffffffffffffffffffffffffffffffffffffff021916908373ffffffffffffffffffffffffffffffffffffffff1602179055505050565b600754600654426104b291906129c3565b101580156104c557506001600a80549050115b156104d3576104d26115f2565b5b5050565b600073ffffffffffffffffffffffffffffffffffffffff16600460008473ffffffffffffffffffffffffffffffffffffffff1673ffffffffffffffffffffffffffffffffffffffff16815260200190815260200160002060009054906101000a900473ffffffffffffffffffffffffffffffffffffffff1673ffffffffffffffffffffffffffffffffffffffff16036105a5576040517f08c379a000000000000000000000000000000000000000000000000000000000815260040161059c90612a54565b60405180910390fd5b600081116105e8576040517f08c379a00000000000000000000000000000000000000000000000000000000081526004016105df90612ac0565b60405180910390fd5b600073ffffffffffffffffffffffffffffffffffffffff16600b60003373ffffffffffffffffffffffffffffffffffffffff1673ffffffffffffffffffffffffffffffffffffffff16815260200190815260200160002060000160009054906101000a900473ffffffffffffffffffffffffffffffffffffffff1673ffffffffffffffffffffffffffffffffffffffff16146106b9576040517f08c379a00000000000000000000000000000000000000000000000000000000081526004016106b090612b2c565b60405180910390fd5b600080600360009054906101000a900473ffffffffffffffffffffffffffffffffffffffff1673ffffffffffffffffffffffffffffffffffffffff1663f2f201dc600460008773ffffffffffffffffffffffffffffffffffffffff1673ffffffffffffffffffffffffffffffffffffffff16815260200190815260200160002060009054906101000a900473ffffffffffffffffffffffffffffffffffffffff166040518263ffffffff1660e01b81526004016107769190612591565b6040805180830381865afa158015610792573d6000803e3d6000fd5b505050506040513d601f19601f820116820180604052508101906107b69190612bae565b91509150600082136107fd576040517f08c379a00000000000000000000000000000000000000000000000000000000081526004016107f490612c60565b60405180910390fd5b61082a3330858773ffffffffffffffffffffffffffffffffffffffff166118ce909392919063ffffffff16565b61087560008054906101000a900473ffffffffffffffffffffffffffffffffffffffff16848673ffffffffffffffffffffffffffffffffffffffff166119509092919063ffffffff16565b60008060009054906101000a900473ffffffffffffffffffffffffffffffffffffffff1673ffffffffffffffffffffffffffffffffffffffff166322f32c88868630306040518563ffffffff1660e01b81526004016108d79493929190612c80565b6020604051808303816000875af11580156108f6573d6000803e3d6000fd5b505050506040513d601f19601f8201168201806040525081019061091a9190612cda565b905060008054906101000a900473ffffffffffffffffffffffffffffffffffffffff1673ffffffffffffffffffffffffffffffffffffffff16634aa4a4fc6040518163ffffffff1660e01b8152600401602060405180830381865afa158015610987573d6000803e3d6000fd5b505050506040513d601f19601f820116820180604052508101906109ab9190612d1c565b73ffffffffffffffffffffffffffffffffffffffff16632e1a7d4d826040518263ffffffff1660e01b81526004016109e391906125bb565b600060405180830381600087803b1580156109fd57600080fd5b505af1158015610a11573d6000803e3d6000fd5b505050508060096000828254610a279190612d49565b9250508190555060008484610a3c9190612d7d565b9050600a339080600181540180825580915050600190039060005260206000200160009091909190916101000a81548173ffffffffffffffffffffffffffffffffffffffff021916908373ffffffffffffffffffffffffffffffffffffffff16021790555060405180608001604052808773ffffffffffffffffffffffffffffffffffffffff1681526020018681526020018281526020018460ff16815250600b60003373ffffffffffffffffffffffffffffffffffffffff1673ffffffffffffffffffffffffffffffffffffffff16815260200190815260200160002060008201518160000160006101000a81548173ffffffffffffffffffffffffffffffffffffffff021916908373ffffffffffffffffffffffffffffffffffffffff160217905550602082015181600101556040820151816002015560608201518160030160006101000a81548160ff021916908360ff1602179055509050508060086000828254610bab9190612d49565b9250508190555042600681905550807f3330a6773675f31f62070870f40379f8c6d42e3761410011a4dfc42b18043d2f33604051610be99190612591565b60405180910390a2505050505050565b6000606060075460065442610c0e91906129c3565b10158015610c2157506001600a80549050115b91509250929050565b610c3261156b565b610c3c60006119ec565b565b60606000600a8054905067ffffffffffffffff811115610c6157610c606125d6565b5b604051908082528060200260200182016040528015610c9a57816020015b610c876120a4565b815260200190600190039081610c7f5790505b50905060005b600a80549050811015611038576040518060c00160405280600a8381548110610ccc57610ccb612dbf565b5b9060005260206000200160009054906101000a900473ffffffffffffffffffffffffffffffffffffffff1673ffffffffffffffffffffffffffffffffffffffff168152602001600b6000600a8581548110610d2a57610d29612dbf565b5b9060005260206000200160009054906101000a900473ffffffffffffffffffffffffffffffffffffffff1673ffffffffffffffffffffffffffffffffffffffff1673ffffffffffffffffffffffffffffffffffffffff16815260200190815260200160002060000160009054906101000a900473ffffffffffffffffffffffffffffffffffffffff1673ffffffffffffffffffffffffffffffffffffffff168152602001600b6000600a8581548110610de657610de5612dbf565b5b9060005260206000200160009054906101000a900473ffffffffffffffffffffffffffffffffffffffff1673ffffffffffffffffffffffffffffffffffffffff1673ffffffffffffffffffffffffffffffffffffffff168152602001908152602001600020600101548152602001600b6000600a8581548110610e6c57610e6b612dbf565b5b9060005260206000200160009054906101000a900473ffffffffffffffffffffffffffffffffffffffff1673ffffffffffffffffffffffffffffffffffffffff1673ffffffffffffffffffffffffffffffffffffffff168152602001908152602001600020600201548152602001600b6000600a8581548110610ef257610ef1612dbf565b5b9060005260206000200160009054906101000a900473ffffffffffffffffffffffffffffffffffffffff1673ffffffffffffffffffffffffffffffffffffffff1673ffffffffffffffffffffffffffffffffffffffff16815260200190815260200160002060030160009054906101000a900460ff1660ff1681526020016008546064600b6000600a8781548110610f8d57610f8c612dbf565b5b9060005260206000200160009054906101000a900473ffffffffffffffffffffffffffffffffffffffff1673ffffffffffffffffffffffffffffffffffffffff1673ffffffffffffffffffffffffffffffffffffffff168152602001908152602001600020600201546110009190612d7d565b61100a9190612e1d565b8152508282815181106110205761101f612dbf565b5b60200260200101819052508080600101915050610ca0565b508091505090565b60008061104b611ac3565b90508060000160009054906101000a900473ffffffffffffffffffffffffffffffffffffffff1691505090565b60075481565b60095481565b60085481565b6000611094611aeb565b905060008160000160089054906101000a900460ff1615905060008260000160009054906101000a900467ffffffffffffffff1690506000808267ffffffffffffffff161480156110e25750825b9050600060018367ffffffffffffffff16148015611117575060003073ffffffffffffffffffffffffffffffffffffffff163b145b905081158015611125575080155b1561115c576040517ff92ee8a900000000000000000000000000000000000000000000000000000000815260040160405180910390fd5b60018560000160006101000a81548167ffffffffffffffff021916908367ffffffffffffffff16021790555083156111ac5760018560000160086101000a81548160ff0219169083151502179055505b89518a51146111ba57600080fd5b6111c333611aff565b886000806101000a81548173ffffffffffffffffffffffffffffffffffffffff021916908373ffffffffffffffffffffffffffffffffffffffff16021790555087600160006101000a81548173ffffffffffffffffffffffffffffffffffffffff021916908373ffffffffffffffffffffffffffffffffffffffff16021790555086600260006101000a81548173ffffffffffffffffffffffffffffffffffffffff021916908373ffffffffffffffffffffffffffffffffffffffff16021790555085600360006101000a81548173ffffffffffffffffffffffffffffffffffffffff021916908373ffffffffffffffffffffffffffffffffffffffff1602179055508b6007819055504260068190555060005b8b5181101561139f578a81815181106112f3576112f2612dbf565b5b6020026020010151600460008e848151811061131257611311612dbf565b5b602002602001015173ffffffffffffffffffffffffffffffffffffffff1673ffffffffffffffffffffffffffffffffffffffff16815260200190815260200160002060006101000a81548173ffffffffffffffffffffffffffffffffffffffff021916908373ffffffffffffffffffffffffffffffffffffffff16021790555080806001019150506112d7565b5083156113fc5760008560000160086101000a81548160ff0219169083151502179055507fc7f505b2f371ae2175ee4913f4499e1f2633a7b5936321eed1cdaeb6115181d260016040516113f39190612ea7565b60405180910390a15b505050505050505050505050565b60065481565b60046020528060005260406000206000915054906101000a900473ffffffffffffffffffffffffffffffffffffffff1681565b600b6020528060005260406000206000915090508060000160009054906101000a900473ffffffffffffffffffffffffffffffffffffffff16908060010154908060020154908060030160009054906101000a900460ff16905084565b6114a861156b565b600073ffffffffffffffffffffffffffffffffffffffff168173ffffffffffffffffffffffffffffffffffffffff160361151a5760006040517f1e4fbdf70000000000000000000000000000000000000000000000000000000081526004016115119190612591565b60405180910390fd5b611523816119ec565b50565b600a818154811061153657600080fd5b906000526020600020016000915054906101000a900473ffffffffffffffffffffffffffffffffffffffff1681565b60055481565b611573611b13565b73ffffffffffffffffffffffffffffffffffffffff16611591611040565b73ffffffffffffffffffffffffffffffffffffffff16146115f0576115b4611b13565b6040517f118cdaa70000000000000000000000000000000000000000000000000000000081526004016115e79190612591565b60405180910390fd5b565b60006115fc611b1b565b905060006008548261160e9190612ec2565b905060008080600090505b600a8054905081101561170f57600b6000600a838154811061163e5761163d612dbf565b5b9060005260206000200160009054906101000a900473ffffffffffffffffffffffffffffffffffffffff1673ffffffffffffffffffffffffffffffffffffffff1673ffffffffffffffffffffffffffffffffffffffff16815260200190815260200160002060020154836116b29190612d49565b92508284101561170257600a81815481106116d0576116cf612dbf565b5b9060005260206000200160009054906101000a900473ffffffffffffffffffffffffffffffffffffffff16915061170f565b8080600101915050611619565b508073ffffffffffffffffffffffffffffffffffffffff166108fc6009549081150290604051600060405180830381858888f19350505050158015611758573d6000803e3d6000fd5b50426006819055506005600081548092919061177390612ef3565b91905055506000600981905550600060088190555060005b600a8054905081101561187057600b6000600a83815481106117b0576117af612dbf565b5b9060005260206000200160009054906101000a900473ffffffffffffffffffffffffffffffffffffffff1673ffffffffffffffffffffffffffffffffffffffff1673ffffffffffffffffffffffffffffffffffffffff168152602001908152602001600020600080820160006101000a81549073ffffffffffffffffffffffffffffffffffffffff0219169055600182016000905560028201600090556003820160006101000a81549060ff02191690555050808060010191505061178b565b50600a600061187f9190612109565b6009546008548273ffffffffffffffffffffffffffffffffffffffff167f866efae43947560fe9d0de9013bc323d5718730d5c1543261b48a7bcb0717b9360405160405180910390a450505050565b61194a848573ffffffffffffffffffffffffffffffffffffffff166323b872dd86868660405160240161190393929190612f3b565b604051602081830303815290604052915060e01b6020820180517bffffffffffffffffffffffffffffffffffffffffffffffffffffffff8381831617835250505050611d82565b50505050565b60008373ffffffffffffffffffffffffffffffffffffffff1663dd62ed3e30856040518363ffffffff1660e01b815260040161198d929190612f72565b602060405180830381865afa1580156119aa573d6000803e3d6000fd5b505050506040513d601f19601f820116820180604052508101906119ce9190612cda565b90506119e6848484846119e19190612d49565b611e24565b50505050565b60006119f6611ac3565b905060008160000160009054906101000a900473ffffffffffffffffffffffffffffffffffffffff169050828260000160006101000a81548173ffffffffffffffffffffffffffffffffffffffff021916908373ffffffffffffffffffffffffffffffffffffffff1602179055508273ffffffffffffffffffffffffffffffffffffffff168173ffffffffffffffffffffffffffffffffffffffff167f8be0079c531659141344cd1fd0a4f28419497f9722a3daafe3b4186f6b6457e060405160405180910390a3505050565b60007f9016d09d72d40fdae2fd8ceac6b6234c7706214fd39c1cd1e609a0528c199300905090565b600080611af6611f33565b90508091505090565b611b07611f5e565b611b1081611f9e565b50565b600033905090565b6000600260009054906101000a900473ffffffffffffffffffffffffffffffffffffffff1673ffffffffffffffffffffffffffffffffffffffff1663e0c862896040518163ffffffff1660e01b8152600401600060405180830381600087803b158015611b8757600080fd5b505af1158015611b9b573d6000803e3d6000fd5b50505050600160009054906101000a900473ffffffffffffffffffffffffffffffffffffffff1673ffffffffffffffffffffffffffffffffffffffff1663808974ff600260009054906101000a900473ffffffffffffffffffffffffffffffffffffffff1673ffffffffffffffffffffffffffffffffffffffff1663e89e106a6040518163ffffffff1660e01b8152600401602060405180830381865afa158015611c4a573d6000803e3d6000fd5b505050506040513d601f19601f82011682018060405250810190611c6e9190612cda565b600260009054906101000a900473ffffffffffffffffffffffffffffffffffffffff166040518363ffffffff1660e01b8152600401611cae929190612f9b565b600060405180830381600087803b158015611cc857600080fd5b505af1158015611cdc573d6000803e3d6000fd5b50505050600260009054906101000a900473ffffffffffffffffffffffffffffffffffffffff1673ffffffffffffffffffffffffffffffffffffffff1663f6eaffc860006040518263ffffffff1660e01b8152600401611d3c9190612fff565b602060405180830381865afa158015611d59573d6000803e3d6000fd5b505050506040513d601f19601f82011682018060405250810190611d7d9190612cda565b905090565b600080602060008451602086016000885af180611da5576040513d6000823e3d81fd5b3d925060005191505060008214611dc0576001811415611ddc565b60008473ffffffffffffffffffffffffffffffffffffffff163b145b15611e1e57836040517f5274afe7000000000000000000000000000000000000000000000000000000008152600401611e159190612591565b60405180910390fd5b50505050565b60008373ffffffffffffffffffffffffffffffffffffffff1663095ea7b38484604051602401611e5592919061301a565b604051602081830303815290604052915060e01b6020820180517bffffffffffffffffffffffffffffffffffffffffffffffffffffffff83818316178352505050509050611ea38482612024565b611f2d57611f22848573ffffffffffffffffffffffffffffffffffffffff1663095ea7b3866000604051602401611edb929190613043565b604051602081830303815290604052915060e01b6020820180517bffffffffffffffffffffffffffffffffffffffffffffffffffffffff8381831617835250505050611d82565b611f2c8482611d82565b5b50505050565b60007ff0c57e16840df040f15088dc2f81fe391c3923bec73e23a9662efc9c229c6a0060001b905090565b611f66612084565b611f9c576040517fd7e6bcf800000000000000000000000000000000000000000000000000000000815260040160405180910390fd5b565b611fa6611f5e565b600073ffffffffffffffffffffffffffffffffffffffff168173ffffffffffffffffffffffffffffffffffffffff16036120185760006040517f1e4fbdf700000000000000000000000000000000000000000000000000000000815260040161200f9190612591565b60405180910390fd5b612021816119ec565b50565b6000806000806020600086516020880160008a5af192503d9150600051905082801561207957506000821461205c5760018114612078565b60008673ffffffffffffffffffffffffffffffffffffffff163b115b5b935050505092915050565b600061208e611aeb565b60000160089054906101000a900460ff16905090565b6040518060c00160405280600073ffffffffffffffffffffffffffffffffffffffff168152602001600073ffffffffffffffffffffffffffffffffffffffff1681526020016000815260200160008152602001600060ff168152602001600081525090565b5080546000825590600052602060002090810190612127919061212a565b50565b5b8082111561214357600081600090555060010161212b565b5090565b6000604051905090565b600080fd5b600080fd5b600073ffffffffffffffffffffffffffffffffffffffff82169050919050565b60006121868261215b565b9050919050565b6121968161217b565b81146121a157600080fd5b50565b6000813590506121b38161218d565b92915050565b600080604083850312156121d0576121cf612151565b5b60006121de858286016121a4565b92505060206121ef858286016121a4565b9150509250929050565b600080fd5b600080fd5b600080fd5b60008083601f84011261221e5761221d6121f9565b5b8235905067ffffffffffffffff81111561223b5761223a6121fe565b5b60208301915083600182028301111561225757612256612203565b5b9250929050565b6000806020838503121561227557612274612151565b5b600083013567ffffffffffffffff81111561229357612292612156565b5b61229f85828601612208565b92509250509250929050565b6000819050919050565b6122be816122ab565b81146122c957600080fd5b50565b6000813590506122db816122b5565b92915050565b600080604083850312156122f8576122f7612151565b5b6000612306858286016121a4565b9250506020612317858286016122cc565b9150509250929050565b60008115159050919050565b61233681612321565b82525050565b600081519050919050565b600082825260208201905092915050565b60005b8381101561237657808201518184015260208101905061235b565b60008484015250505050565b6000601f19601f8301169050919050565b600061239e8261233c565b6123a88185612347565b93506123b8818560208601612358565b6123c181612382565b840191505092915050565b60006040820190506123e1600083018561232d565b81810360208301526123f38184612393565b90509392505050565b600081519050919050565b600082825260208201905092915050565b6000819050602082019050919050565b6124318161217b565b82525050565b612440816122ab565b82525050565b600060ff82169050919050565b61245c81612446565b82525050565b60c0820160008201516124786000850182612428565b50602082015161248b6020850182612428565b50604082015161249e6040850182612437565b5060608201516124b16060850182612437565b5060808201516124c46080850182612453565b5060a08201516124d760a0850182612437565b50505050565b60006124e98383612462565b60c08301905092915050565b6000602082019050919050565b600061250d826123fc565b6125178185612407565b935061252283612418565b8060005b8381101561255357815161253a88826124dd565b9750612545836124f5565b925050600181019050612526565b5085935050505092915050565b6000602082019050818103600083015261257a8184612502565b905092915050565b61258b8161217b565b82525050565b60006020820190506125a66000830184612582565b92915050565b6125b5816122ab565b82525050565b60006020820190506125d060008301846125ac565b92915050565b7f4e487b7100000000000000000000000000000000000000000000000000000000600052604160045260246000fd5b61260e82612382565b810181811067ffffffffffffffff8211171561262d5761262c6125d6565b5b80604052505050565b6000612640612147565b905061264c8282612605565b919050565b600067ffffffffffffffff82111561266c5761266b6125d6565b5b602082029050602081019050919050565b600061269061268b84612651565b612636565b905080838252602082019050602084028301858111156126b3576126b2612203565b5b835b818110156126dc57806126c888826121a4565b8452602084019350506020810190506126b5565b5050509392505050565b600082601f8301126126fb576126fa6121f9565b5b813561270b84826020860161267d565b91505092915050565b600061271f8261217b565b9050919050565b61272f81612714565b811461273a57600080fd5b50565b60008135905061274c81612726565b92915050565b600061275d8261217b565b9050919050565b61276d81612752565b811461277857600080fd5b50565b60008135905061278a81612764565b92915050565b600061279b8261217b565b9050919050565b6127ab81612790565b81146127b657600080fd5b50565b6000813590506127c8816127a2565b92915050565b60006127d98261217b565b9050919050565b6127e9816127ce565b81146127f457600080fd5b50565b600081359050612806816127e0565b92915050565b600080600080600080600060e0888a03121561282b5761282a612151565b5b60006128398a828b016122cc565b975050602088013567ffffffffffffffff81111561285a57612859612156565b5b6128668a828b016126e6565b965050604088013567ffffffffffffffff81111561288757612886612156565b5b6128938a828b016126e6565b95505060606128a48a828b0161273d565b94505060806128b58a828b0161277b565b93505060a06128c68a828b016127b9565b92505060c06128d78a828b016127f7565b91505092959891949750929550565b6000602082840312156128fc576128fb612151565b5b600061290a848285016121a4565b91505092915050565b61291c81612446565b82525050565b60006080820190506129376000830187612582565b61294460208301866125ac565b61295160408301856125ac565b61295e6060830184612913565b95945050505050565b60006020828403121561297d5761297c612151565b5b600061298b848285016122cc565b91505092915050565b7f4e487b7100000000000000000000000000000000000000000000000000000000600052601160045260246000fd5b60006129ce826122ab565b91506129d9836122ab565b92508282039050818111156129f1576129f0612994565b5b92915050565b600082825260208201905092915050565b7f546f6b656e206973206e6f7420616c6c6f776564000000000000000000000000600082015250565b6000612a3e6014836129f7565b9150612a4982612a08565b602082019050919050565b60006020820190508181036000830152612a6d81612a31565b9050919050565b7f596f75206e65656420746f206465706f73697420736f6d657468696e67000000600082015250565b6000612aaa601d836129f7565b9150612ab582612a74565b602082019050919050565b60006020820190508181036000830152612ad981612a9d565b9050919050565b7f596f7520616c7265616479207061727469636970617465000000000000000000600082015250565b6000612b166017836129f7565b9150612b2182612ae0565b602082019050919050565b60006020820190508181036000830152612b4581612b09565b9050919050565b6000819050919050565b612b5f81612b4c565b8114612b6a57600080fd5b50565b600081519050612b7c81612b56565b92915050565b612b8b81612446565b8114612b9657600080fd5b50565b600081519050612ba881612b82565b92915050565b60008060408385031215612bc557612bc4612151565b5b6000612bd385828601612b6d565b9250506020612be485828601612b99565b9150509250929050565b7f546f6b656e206973206e6f7420737570706f72746564206f72206e6f7420617660008201527f61696c61626c6520617420746865206d6f6d656e740000000000000000000000602082015250565b6000612c4a6035836129f7565b9150612c5582612bee565b604082019050919050565b60006020820190508181036000830152612c7981612c3d565b9050919050565b6000608082019050612c956000830187612582565b612ca260208301866125ac565b612caf6040830185612582565b612cbc6060830184612582565b95945050505050565b600081519050612cd4816122b5565b92915050565b600060208284031215612cf057612cef612151565b5b6000612cfe84828501612cc5565b91505092915050565b600081519050612d168161218d565b92915050565b600060208284031215612d3257612d31612151565b5b6000612d4084828501612d07565b91505092915050565b6000612d54826122ab565b9150612d5f836122ab565b9250828201905080821115612d7757612d76612994565b5b92915050565b6000612d88826122ab565b9150612d93836122ab565b9250828202612da1816122ab565b91508282048414831517612db857612db7612994565b5b5092915050565b7f4e487b7100000000000000000000000000000000000000000000000000000000600052603260045260246000fd5b7f4e487b7100000000000000000000000000000000000000000000000000000000600052601260045260246000fd5b6000612e28826122ab565b9150612e33836122ab565b925082612e4357612e42612dee565b5b828204905092915050565b6000819050919050565b600067ffffffffffffffff82169050919050565b6000819050919050565b6000612e91612e8c612e8784612e4e565b612e6c565b612e58565b9050919050565b612ea181612e76565b82525050565b6000602082019050612ebc6000830184612e98565b92915050565b6000612ecd826122ab565b9150612ed8836122ab565b925082612ee857612ee7612dee565b5b828206905092915050565b6000612efe826122ab565b91507fffffffffffffffffffffffffffffffffffffffffffffffffffffffffffffffff8203612f3057612f2f612994565b5b600182019050919050565b6000606082019050612f506000830186612582565b612f5d6020830185612582565b612f6a60408301846125ac565b949350505050565b6000604082019050612f876000830185612582565b612f946020830184612582565b9392505050565b6000604082019050612fb060008301856125ac565b612fbd6020830184612582565b9392505050565b6000819050919050565b6000612fe9612fe4612fdf84612fc4565b612e6c565b6122ab565b9050919050565b612ff981612fce565b82525050565b60006020820190506130146000830184612ff0565b92915050565b600060408201905061302f6000830185612582565b61303c60208301846125ac565b9392505050565b60006040820190506130586000830185612582565b6130656020830184612ff0565b939250505056fea26469706673582212207dd56e7b99f263c47f1836bcced62194b0c81f5735145f63ae036f07f988e1e664736f6c634300081c0033",
  "linkReferences": {},
  "deployedLinkReferences": {}
}