{
  "_format": "hh-sol-artifact-1",
  "contractName": "Raffle",
  "sourceName": "contracts/Raffle.sol",
  "abi": [
    {
      "inputs": [],
      "name": "InvalidInitialization",
      "type": "error"
    },
    {
      "inputs": [],
      "name": "NotInitializing",
      "type": "error"
    },
    {
      "inputs": [
        {
          "internalType": "address",
          "name": "owner",
          "type": "address"
        }
      ],
      "name": "OwnableInvalidOwner",
      "type": "error"
    },
    {
      "inputs": [
        {
          "internalType": "address",
          "name": "account",
          "type": "address"
        }
      ],
      "name": "OwnableUnauthorizedAccount",
      "type": "error"
    },
    {
      "inputs": [
        {
          "internalType": "address",
          "name": "token",
          "type": "address"
        }
      ],
      "name": "SafeERC20FailedOperation",
      "type": "error"
    },
    {
      "anonymous": false,
      "inputs": [
        {
          "indexed": false,
          "internalType": "uint64",
          "name": "version",
          "type": "uint64"
        }
      ],
      "name": "Initialized",
      "type": "event"
    },
    {
      "anonymous": false,
      "inputs": [
        {
          "indexed": true,
          "internalType": "address",
          "name": "previousOwner",
          "type": "address"
        },
        {
          "indexed": true,
          "internalType": "address",
          "name": "newOwner",
          "type": "address"
        }
      ],
      "name": "OwnershipTransferred",
      "type": "event"
    },
    {
      "anonymous": false,
      "inputs": [
        {
          "indexed": false,
          "internalType": "address",
          "name": "player",
          "type": "address"
        },
        {
          "indexed": true,
          "internalType": "uint256",
          "name": "amountDepositedInUsd",
          "type": "uint256"
        }
      ],
      "name": "PlayerJoined",
      "type": "event"
    },
    {
      "anonymous": false,
      "inputs": [
        {
          "indexed": true,
          "internalType": "address",
          "name": "winner",
          "type": "address"
        },
        {
          "indexed": false,
          "internalType": "uint256",
          "name": "winAmountInUsd",
          "type": "uint256"
        },
        {
          "indexed": false,
          "internalType": "uint256",
          "name": "winAmountInEth",
          "type": "uint256"
        }
      ],
      "name": "WinnerSelected",
      "type": "event"
    },
    {
      "inputs": [
        {
          "internalType": "address",
          "name": "tokenAddress",
          "type": "address"
        },
        {
          "internalType": "address",
          "name": "feedAddress",
          "type": "address"
        }
      ],
      "name": "addAllowedToken",
      "outputs": [],
      "stateMutability": "nonpayable",
      "type": "function"
    },
    {
      "inputs": [
        {
          "internalType": "bytes",
          "name": "",
          "type": "bytes"
        }
      ],
      "name": "checkUpkeep",
      "outputs": [
        {
          "internalType": "bool",
          "name": "upkeepNeeded",
          "type": "bool"
        },
        {
          "internalType": "bytes",
          "name": "",
          "type": "bytes"
        }
      ],
      "stateMutability": "view",
      "type": "function"
    },
    {
      "inputs": [
        {
          "internalType": "address",
          "name": "_tokenAddress",
          "type": "address"
        },
        {
          "internalType": "uint256",
          "name": "_amount",
          "type": "uint256"
        }
      ],
      "name": "deposit",
      "outputs": [],
      "stateMutability": "nonpayable",
      "type": "function"
    },
    {
      "inputs": [
        {
          "internalType": "address",
          "name": "_tokenAddress",
          "type": "address"
        },
        {
          "internalType": "uint256",
          "name": "_amount",
          "type": "uint256"
        },
        {
          "internalType": "uint256",
          "name": "deadline",
          "type": "uint256"
        },
        {
          "internalType": "uint8",
          "name": "v",
          "type": "uint8"
        },
        {
          "internalType": "bytes32",
          "name": "r",
          "type": "bytes32"
        },
        {
          "internalType": "bytes32",
          "name": "s",
          "type": "bytes32"
        }
      ],
      "name": "depositWithPermit",
      "outputs": [],
      "stateMutability": "nonpayable",
      "type": "function"
    },
    {
      "inputs": [],
      "name": "gamesCount",
      "outputs": [
        {
          "internalType": "uint256",
          "name": "",
          "type": "uint256"
        }
      ],
      "stateMutability": "view",
      "type": "function"
    },
    {
      "inputs": [],
      "name": "getPlayers",
      "outputs": [
        {
          "components": [
            {
              "internalType": "address",
              "name": "playerAddress",
              "type": "address"
            },
            {
              "internalType": "address",
              "name": "depositedTokenAddress",
              "type": "address"
            },
            {
              "internalType": "uint256",
              "name": "depositedTokenAmount",
              "type": "uint256"
            },
            {
              "internalType": "uint256",
              "name": "amountDepositedInUsd",
              "type": "uint256"
            },
            {
              "internalType": "uint8",
              "name": "decimals",
              "type": "uint8"
            },
            {
              "internalType": "uint256",
              "name": "stake",
              "type": "uint256"
            }
          ],
          "internalType": "struct Raffle.ResultPlayer[]",
          "name": "",
          "type": "tuple[]"
        }
      ],
      "stateMutability": "view",
      "type": "function"
    },
    {
      "inputs": [
        {
          "internalType": "uint256",
          "name": "_interval",
          "type": "uint256"
        },
        {
          "internalType": "address[]",
          "name": "_tokens",
          "type": "address[]"
        },
        {
          "internalType": "address[]",
          "name": "_feed",
          "type": "address[]"
        },
        {
          "internalType": "contract Swapper",
          "name": "_swapper",
          "type": "address"
        },
        {
          "internalType": "contract VRFMock",
          "name": "_vrfMock",
          "type": "address"
        },
        {
          "internalType": "contract VRFv2Consumer",
          "name": "_vrfConsumer",
          "type": "address"
        },
        {
          "internalType": "contract ExchangeFeedFetcher",
          "name": "_feedFetcher",
          "type": "address"
        }
      ],
      "name": "initialize",
      "outputs": [],
      "stateMutability": "nonpayable",
      "type": "function"
    },
    {
      "inputs": [],
      "name": "interval",
      "outputs": [
        {
          "internalType": "uint256",
          "name": "",
          "type": "uint256"
        }
      ],
      "stateMutability": "view",
      "type": "function"
    },
    {
      "inputs": [],
      "name": "lastDepositTimestamp",
      "outputs": [
        {
          "internalType": "uint256",
          "name": "",
          "type": "uint256"
        }
      ],
      "stateMutability": "view",
      "type": "function"
    },
    {
      "inputs": [],
      "name": "owner",
      "outputs": [
        {
          "internalType": "address",
          "name": "",
          "type": "address"
        }
      ],
      "stateMutability": "view",
      "type": "function"
    },
    {
      "inputs": [
        {
          "internalType": "bytes",
          "name": "",
          "type": "bytes"
        }
      ],
      "name": "performUpkeep",
      "outputs": [],
      "stateMutability": "nonpayable",
      "type": "function"
    },
    {
      "inputs": [
        {
          "internalType": "uint256",
          "name": "",
          "type": "uint256"
        }
      ],
      "name": "players",
      "outputs": [
        {
          "internalType": "address",
          "name": "",
          "type": "address"
        }
      ],
      "stateMutability": "view",
      "type": "function"
    },
    {
      "inputs": [
        {
          "internalType": "address",
          "name": "",
          "type": "address"
        }
      ],
      "name": "playersOfCurrentRaffle",
      "outputs": [
        {
          "internalType": "address",
          "name": "depositedTokenAddress",
          "type": "address"
        },
        {
          "internalType": "uint256",
          "name": "depositedTokenAmount",
          "type": "uint256"
        },
        {
          "internalType": "uint256",
          "name": "amountDepositedInUsd",
          "type": "uint256"
        },
        {
          "internalType": "uint8",
          "name": "decimals",
          "type": "uint8"
        }
      ],
      "stateMutability": "view",
      "type": "function"
    },
    {
      "inputs": [],
      "name": "renounceOwnership",
      "outputs": [],
      "stateMutability": "nonpayable",
      "type": "function"
    },
    {
      "inputs": [
        {
          "internalType": "address",
          "name": "",
          "type": "address"
        }
      ],
      "name": "tokensAllowedWithFeed",
      "outputs": [
        {
          "internalType": "address",
          "name": "",
          "type": "address"
        }
      ],
      "stateMutability": "view",
      "type": "function"
    },
    {
      "inputs": [],
      "name": "totalAmountInEth",
      "outputs": [
        {
          "internalType": "uint256",
          "name": "",
          "type": "uint256"
        }
      ],
      "stateMutability": "view",
      "type": "function"
    },
    {
      "inputs": [],
      "name": "totalAmountInUsd",
      "outputs": [
        {
          "internalType": "uint256",
          "name": "",
          "type": "uint256"
        }
      ],
      "stateMutability": "view",
      "type": "function"
    },
    {
      "inputs": [
        {
          "internalType": "address",
          "name": "newOwner",
          "type": "address"
        }
      ],
      "name": "transferOwnership",
      "outputs": [],
      "stateMutability": "nonpayable",
      "type": "function"
    },
    {
      "stateMutability": "payable",
      "type": "receive"
    }
  ],
  "bytecode": "0x6080604052348015600f57600080fd5b50613aaa8061001f6000396000f3fe60806040526004361061010d5760003560e01c8063981e0b1d11610095578063ca459e0311610064578063ca459e031461033d578063d0faec601461037a578063f2fde38b146103ba578063f71d96cb146103e3578063fb632b7c1461042057610114565b8063981e0b1d14610293578063ba6771fb146102be578063be3f5785146102e9578063c3457c1c1461031257610114565b80636e04ff0d116100dc5780636e04ff0d146101bd578063715018a6146101fb5780638b5b9ccc146102125780638da5cb5b1461023d578063947a36fb1461026857610114565b806312a62cff14610119578063305e94cd146101425780634585e33b1461016b57806347e7ef241461019457610114565b3661011457005b600080fd5b34801561012557600080fd5b50610140600480360381019061013b9190612a8e565b61044b565b005b34801561014e57600080fd5b5061016960048036038101906101649190612b1b565b610c3c565b005b34801561017757600080fd5b50610192600480360381019061018d9190612bc0565b610cc6565b005b3480156101a057600080fd5b506101bb60048036038101906101b69190612c0d565b610cfc565b005b3480156101c957600080fd5b506101e460048036038101906101df9190612bc0565b61141e565b6040516101f2929190612cf8565b60405180910390f35b34801561020757600080fd5b5061021061144f565b005b34801561021e57600080fd5b50610227611463565b6040516102349190612e7f565b60405180910390f35b34801561024957600080fd5b50610252611865565b60405161025f9190612eb0565b60405180910390f35b34801561027457600080fd5b5061027d61189d565b60405161028a9190612eda565b60405180910390f35b34801561029f57600080fd5b506102a86118a3565b6040516102b59190612eda565b60405180910390f35b3480156102ca57600080fd5b506102d36118a9565b6040516102e09190612eda565b60405180910390f35b3480156102f557600080fd5b50610310600480360381019061030b919061312b565b6118af565b005b34801561031e57600080fd5b50610327611c2f565b6040516103349190612eda565b60405180910390f35b34801561034957600080fd5b50610364600480360381019061035f9190613205565b611c35565b6040516103719190612eb0565b60405180910390f35b34801561038657600080fd5b506103a1600480360381019061039c9190613205565b611c68565b6040516103b19493929190613241565b60405180910390f35b3480156103c657600080fd5b506103e160048036038101906103dc9190613205565b611cc5565b005b3480156103ef57600080fd5b5061040a60048036038101906104059190613286565b611d4b565b6040516104179190612eb0565b60405180910390f35b34801561042c57600080fd5b50610435611d8a565b6040516104429190612eda565b60405180910390f35b600073ffffffffffffffffffffffffffffffffffffffff16600460008873ffffffffffffffffffffffffffffffffffffffff1673ffffffffffffffffffffffffffffffffffffffff16815260200190815260200160002060009054906101000a900473ffffffffffffffffffffffffffffffffffffffff1673ffffffffffffffffffffffffffffffffffffffff1603610519576040517f08c379a000000000000000000000000000000000000000000000000000000000815260040161051090613310565b60405180910390fd5b6000851161055c576040517f08c379a00000000000000000000000000000000000000000000000000000000081526004016105539061337c565b60405180910390fd5b600073ffffffffffffffffffffffffffffffffffffffff16600b60003373ffffffffffffffffffffffffffffffffffffffff1673ffffffffffffffffffffffffffffffffffffffff16815260200190815260200160002060000160009054906101000a900473ffffffffffffffffffffffffffffffffffffffff1673ffffffffffffffffffffffffffffffffffffffff161461062d576040517f08c379a0000000000000000000000000000000000000000000000000000000008152600401610624906133e8565b60405180910390fd5b600080600360009054906101000a900473ffffffffffffffffffffffffffffffffffffffff1673ffffffffffffffffffffffffffffffffffffffff1663f2f201dc600460008b73ffffffffffffffffffffffffffffffffffffffff1673ffffffffffffffffffffffffffffffffffffffff16815260200190815260200160002060009054906101000a900473ffffffffffffffffffffffffffffffffffffffff166040518263ffffffff1660e01b81526004016106ea9190612eb0565b6040805180830381865afa158015610706573d6000803e3d6000fd5b505050506040513d601f19601f8201168201806040525081019061072a9190613453565b9150915060008213610771576040517f08c379a000000000000000000000000000000000000000000000000000000000815260040161076890613505565b60405180910390fd5b8773ffffffffffffffffffffffffffffffffffffffff1663d505accf33308a8a8a8a8a6040518863ffffffff1660e01b81526004016107b69796959493929190613534565b600060405180830381600087803b1580156107d057600080fd5b505af11580156107e4573d6000803e3d6000fd5b505050508773ffffffffffffffffffffffffffffffffffffffff166323b872dd33308a6040518463ffffffff1660e01b8152600401610825939291906135a3565b6020604051808303816000875af1158015610844573d6000803e3d6000fd5b505050506040513d601f19601f820116820180604052508101906108689190613606565b506108b460008054906101000a900473ffffffffffffffffffffffffffffffffffffffff16888a73ffffffffffffffffffffffffffffffffffffffff16611d909092919063ffffffff16565b60008060009054906101000a900473ffffffffffffffffffffffffffffffffffffffff1673ffffffffffffffffffffffffffffffffffffffff166322f32c888a8a30306040518563ffffffff1660e01b81526004016109169493929190613633565b6020604051808303816000875af1158015610935573d6000803e3d6000fd5b505050506040513d601f19601f82011682018060405250810190610959919061368d565b905060008054906101000a900473ffffffffffffffffffffffffffffffffffffffff1673ffffffffffffffffffffffffffffffffffffffff16634aa4a4fc6040518163ffffffff1660e01b8152600401602060405180830381865afa1580156109c6573d6000803e3d6000fd5b505050506040513d601f19601f820116820180604052508101906109ea91906136cf565b73ffffffffffffffffffffffffffffffffffffffff16632e1a7d4d826040518263ffffffff1660e01b8152600401610a229190612eda565b600060405180830381600087803b158015610a3c57600080fd5b505af1158015610a50573d6000803e3d6000fd5b505050508060096000828254610a66919061372b565b9250508190555060008884610a7b919061375f565b9050600a339080600181540180825580915050600190039060005260206000200160009091909190916101000a81548173ffffffffffffffffffffffffffffffffffffffff021916908373ffffffffffffffffffffffffffffffffffffffff16021790555060405180608001604052808b73ffffffffffffffffffffffffffffffffffffffff1681526020018a81526020018281526020018460ff16815250600b60003373ffffffffffffffffffffffffffffffffffffffff1673ffffffffffffffffffffffffffffffffffffffff16815260200190815260200160002060008201518160000160006101000a81548173ffffffffffffffffffffffffffffffffffffffff021916908373ffffffffffffffffffffffffffffffffffffffff160217905550602082015181600101556040820151816002015560608201518160030160006101000a81548160ff021916908360ff1602179055509050508060086000828254610bea919061372b565b9250508190555042600681905550807f3330a6773675f31f62070870f40379f8c6d42e3761410011a4dfc42b18043d2f33604051610c289190612eb0565b60405180910390a250505050505050505050565b610c44611e2c565b80600460008473ffffffffffffffffffffffffffffffffffffffff1673ffffffffffffffffffffffffffffffffffffffff16815260200190815260200160002060006101000a81548173ffffffffffffffffffffffffffffffffffffffff021916908373ffffffffffffffffffffffffffffffffffffffff1602179055505050565b60075460065442610cd791906137a1565b10158015610cea57506001600a80549050115b15610cf857610cf7611eb3565b5b5050565b600073ffffffffffffffffffffffffffffffffffffffff16600460008473ffffffffffffffffffffffffffffffffffffffff1673ffffffffffffffffffffffffffffffffffffffff16815260200190815260200160002060009054906101000a900473ffffffffffffffffffffffffffffffffffffffff1673ffffffffffffffffffffffffffffffffffffffff1603610dca576040517f08c379a0000000000000000000000000000000000000000000000000000000008152600401610dc190613310565b60405180910390fd5b60008111610e0d576040517f08c379a0000000000000000000000000000000000000000000000000000000008152600401610e049061337c565b60405180910390fd5b600073ffffffffffffffffffffffffffffffffffffffff16600b60003373ffffffffffffffffffffffffffffffffffffffff1673ffffffffffffffffffffffffffffffffffffffff16815260200190815260200160002060000160009054906101000a900473ffffffffffffffffffffffffffffffffffffffff1673ffffffffffffffffffffffffffffffffffffffff1614610ede576040517f08c379a0000000000000000000000000000000000000000000000000000000008152600401610ed5906133e8565b60405180910390fd5b600080600360009054906101000a900473ffffffffffffffffffffffffffffffffffffffff1673ffffffffffffffffffffffffffffffffffffffff1663f2f201dc600460008773ffffffffffffffffffffffffffffffffffffffff1673ffffffffffffffffffffffffffffffffffffffff16815260200190815260200160002060009054906101000a900473ffffffffffffffffffffffffffffffffffffffff166040518263ffffffff1660e01b8152600401610f9b9190612eb0565b6040805180830381865afa158015610fb7573d6000803e3d6000fd5b505050506040513d601f19601f82011682018060405250810190610fdb9190613453565b9150915060008213611022576040517f08c379a000000000000000000000000000000000000000000000000000000000815260040161101990613505565b60405180910390fd5b61104f3330858773ffffffffffffffffffffffffffffffffffffffff1661219a909392919063ffffffff16565b61109a60008054906101000a900473ffffffffffffffffffffffffffffffffffffffff16848673ffffffffffffffffffffffffffffffffffffffff16611d909092919063ffffffff16565b60008060009054906101000a900473ffffffffffffffffffffffffffffffffffffffff1673ffffffffffffffffffffffffffffffffffffffff166322f32c88868630306040518563ffffffff1660e01b81526004016110fc9493929190613633565b6020604051808303816000875af115801561111b573d6000803e3d6000fd5b505050506040513d601f19601f8201168201806040525081019061113f919061368d565b905060008054906101000a900473ffffffffffffffffffffffffffffffffffffffff1673ffffffffffffffffffffffffffffffffffffffff16634aa4a4fc6040518163ffffffff1660e01b8152600401602060405180830381865afa1580156111ac573d6000803e3d6000fd5b505050506040513d601f19601f820116820180604052508101906111d091906136cf565b73ffffffffffffffffffffffffffffffffffffffff16632e1a7d4d826040518263ffffffff1660e01b81526004016112089190612eda565b600060405180830381600087803b15801561122257600080fd5b505af1158015611236573d6000803e3d6000fd5b50505050806009600082825461124c919061372b565b9250508190555060008484611261919061375f565b9050600a339080600181540180825580915050600190039060005260206000200160009091909190916101000a81548173ffffffffffffffffffffffffffffffffffffffff021916908373ffffffffffffffffffffffffffffffffffffffff16021790555060405180608001604052808773ffffffffffffffffffffffffffffffffffffffff1681526020018681526020018281526020018460ff16815250600b60003373ffffffffffffffffffffffffffffffffffffffff1673ffffffffffffffffffffffffffffffffffffffff16815260200190815260200160002060008201518160000160006101000a81548173ffffffffffffffffffffffffffffffffffffffff021916908373ffffffffffffffffffffffffffffffffffffffff160217905550602082015181600101556040820151816002015560608201518160030160006101000a81548160ff021916908360ff16021790555090505080600860008282546113d0919061372b565b9250508190555042600681905550807f3330a6773675f31f62070870f40379f8c6d42e3761410011a4dfc42b18043d2f3360405161140e9190612eb0565b60405180910390a2505050505050565b600060606007546006544261143391906137a1565b1015801561144657506001600a80549050115b91509250929050565b611457611e2c565b611461600061221c565b565b60606000600a8054905067ffffffffffffffff81111561148657611485612ef5565b5b6040519080825280602002602001820160405280156114bf57816020015b6114ac6128d4565b8152602001906001900390816114a45790505b50905060005b600a8054905081101561185d576040518060c00160405280600a83815481106114f1576114f06137d5565b5b9060005260206000200160009054906101000a900473ffffffffffffffffffffffffffffffffffffffff1673ffffffffffffffffffffffffffffffffffffffff168152602001600b6000600a858154811061154f5761154e6137d5565b5b9060005260206000200160009054906101000a900473ffffffffffffffffffffffffffffffffffffffff1673ffffffffffffffffffffffffffffffffffffffff1673ffffffffffffffffffffffffffffffffffffffff16815260200190815260200160002060000160009054906101000a900473ffffffffffffffffffffffffffffffffffffffff1673ffffffffffffffffffffffffffffffffffffffff168152602001600b6000600a858154811061160b5761160a6137d5565b5b9060005260206000200160009054906101000a900473ffffffffffffffffffffffffffffffffffffffff1673ffffffffffffffffffffffffffffffffffffffff1673ffffffffffffffffffffffffffffffffffffffff168152602001908152602001600020600101548152602001600b6000600a8581548110611691576116906137d5565b5b9060005260206000200160009054906101000a900473ffffffffffffffffffffffffffffffffffffffff1673ffffffffffffffffffffffffffffffffffffffff1673ffffffffffffffffffffffffffffffffffffffff168152602001908152602001600020600201548152602001600b6000600a8581548110611717576117166137d5565b5b9060005260206000200160009054906101000a900473ffffffffffffffffffffffffffffffffffffffff1673ffffffffffffffffffffffffffffffffffffffff1673ffffffffffffffffffffffffffffffffffffffff16815260200190815260200160002060030160009054906101000a900460ff1660ff1681526020016008546064600b6000600a87815481106117b2576117b16137d5565b5b9060005260206000200160009054906101000a900473ffffffffffffffffffffffffffffffffffffffff1673ffffffffffffffffffffffffffffffffffffffff1673ffffffffffffffffffffffffffffffffffffffff16815260200190815260200160002060020154611825919061375f565b61182f9190613833565b815250828281518110611845576118446137d5565b5b602002602001018190525080806001019150506114c5565b508091505090565b6000806118706122f3565b90508060000160009054906101000a900473ffffffffffffffffffffffffffffffffffffffff1691505090565b60075481565b60095481565b60085481565b60006118b961231b565b905060008160000160089054906101000a900460ff1615905060008260000160009054906101000a900467ffffffffffffffff1690506000808267ffffffffffffffff161480156119075750825b9050600060018367ffffffffffffffff1614801561193c575060003073ffffffffffffffffffffffffffffffffffffffff163b145b90508115801561194a575080155b15611981576040517ff92ee8a900000000000000000000000000000000000000000000000000000000815260040160405180910390fd5b60018560000160006101000a81548167ffffffffffffffff021916908367ffffffffffffffff16021790555083156119d15760018560000160086101000a81548160ff0219169083151502179055505b89518a51146119df57600080fd5b6119e83361232f565b886000806101000a81548173ffffffffffffffffffffffffffffffffffffffff021916908373ffffffffffffffffffffffffffffffffffffffff16021790555087600160006101000a81548173ffffffffffffffffffffffffffffffffffffffff021916908373ffffffffffffffffffffffffffffffffffffffff16021790555086600260006101000a81548173ffffffffffffffffffffffffffffffffffffffff021916908373ffffffffffffffffffffffffffffffffffffffff16021790555085600360006101000a81548173ffffffffffffffffffffffffffffffffffffffff021916908373ffffffffffffffffffffffffffffffffffffffff1602179055508b6007819055504260068190555060005b8b51811015611bc4578a8181518110611b1857611b176137d5565b5b6020026020010151600460008e8481518110611b3757611b366137d5565b5b602002602001015173ffffffffffffffffffffffffffffffffffffffff1673ffffffffffffffffffffffffffffffffffffffff16815260200190815260200160002060006101000a81548173ffffffffffffffffffffffffffffffffffffffff021916908373ffffffffffffffffffffffffffffffffffffffff1602179055508080600101915050611afc565b508315611c215760008560000160086101000a81548160ff0219169083151502179055507fc7f505b2f371ae2175ee4913f4499e1f2633a7b5936321eed1cdaeb6115181d26001604051611c1891906138bd565b60405180910390a15b505050505050505050505050565b60065481565b60046020528060005260406000206000915054906101000a900473ffffffffffffffffffffffffffffffffffffffff1681565b600b6020528060005260406000206000915090508060000160009054906101000a900473ffffffffffffffffffffffffffffffffffffffff16908060010154908060020154908060030160009054906101000a900460ff16905084565b611ccd611e2c565b600073ffffffffffffffffffffffffffffffffffffffff168173ffffffffffffffffffffffffffffffffffffffff1603611d3f5760006040517f1e4fbdf7000000000000000000000000000000000000000000000000000000008152600401611d369190612eb0565b60405180910390fd5b611d488161221c565b50565b600a8181548110611d5b57600080fd5b906000526020600020016000915054906101000a900473ffffffffffffffffffffffffffffffffffffffff1681565b60055481565b60008373ffffffffffffffffffffffffffffffffffffffff1663dd62ed3e30856040518363ffffffff1660e01b8152600401611dcd9291906138d8565b602060405180830381865afa158015611dea573d6000803e3d6000fd5b505050506040513d601f19601f82011682018060405250810190611e0e919061368d565b9050611e2684848484611e21919061372b565b612343565b50505050565b611e34612452565b73ffffffffffffffffffffffffffffffffffffffff16611e52611865565b73ffffffffffffffffffffffffffffffffffffffff1614611eb157611e75612452565b6040517f118cdaa7000000000000000000000000000000000000000000000000000000008152600401611ea89190612eb0565b60405180910390fd5b565b6000611ebd61245a565b9050600060085482611ecf9190613901565b905060008080600090505b600a80549050811015611fd057600b6000600a8381548110611eff57611efe6137d5565b5b9060005260206000200160009054906101000a900473ffffffffffffffffffffffffffffffffffffffff1673ffffffffffffffffffffffffffffffffffffffff1673ffffffffffffffffffffffffffffffffffffffff1681526020019081526020016000206002015483611f73919061372b565b925082841015611fc357600a8181548110611f9157611f906137d5565b5b9060005260206000200160009054906101000a900473ffffffffffffffffffffffffffffffffffffffff169150611fd0565b8080600101915050611eda565b508073ffffffffffffffffffffffffffffffffffffffff166108fc6009549081150290604051600060405180830381858888f19350505050158015612019573d6000803e3d6000fd5b50426006819055506005600081548092919061203490613932565b91905055506000600981905550600060088190555060005b600a8054905081101561213157600b6000600a8381548110612071576120706137d5565b5b9060005260206000200160009054906101000a900473ffffffffffffffffffffffffffffffffffffffff1673ffffffffffffffffffffffffffffffffffffffff1673ffffffffffffffffffffffffffffffffffffffff168152602001908152602001600020600080820160006101000a81549073ffffffffffffffffffffffffffffffffffffffff0219169055600182016000905560028201600090556003820160006101000a81549060ff02191690555050808060010191505061204c565b50600a60006121409190612939565b8073ffffffffffffffffffffffffffffffffffffffff167f866efae43947560fe9d0de9013bc323d5718730d5c1543261b48a7bcb0717b9360085460095460405161218c92919061397a565b60405180910390a250505050565b612216848573ffffffffffffffffffffffffffffffffffffffff166323b872dd8686866040516024016121cf939291906135a3565b604051602081830303815290604052915060e01b6020820180517bffffffffffffffffffffffffffffffffffffffffffffffffffffffff83818316178352505050506126c1565b50505050565b60006122266122f3565b905060008160000160009054906101000a900473ffffffffffffffffffffffffffffffffffffffff169050828260000160006101000a81548173ffffffffffffffffffffffffffffffffffffffff021916908373ffffffffffffffffffffffffffffffffffffffff1602179055508273ffffffffffffffffffffffffffffffffffffffff168173ffffffffffffffffffffffffffffffffffffffff167f8be0079c531659141344cd1fd0a4f28419497f9722a3daafe3b4186f6b6457e060405160405180910390a3505050565b60007f9016d09d72d40fdae2fd8ceac6b6234c7706214fd39c1cd1e609a0528c199300905090565b600080612326612763565b90508091505090565b61233761278e565b612340816127ce565b50565b60008373ffffffffffffffffffffffffffffffffffffffff1663095ea7b384846040516024016123749291906139a3565b604051602081830303815290604052915060e01b6020820180517bffffffffffffffffffffffffffffffffffffffffffffffffffffffff838183161783525050505090506123c28482612854565b61244c57612441848573ffffffffffffffffffffffffffffffffffffffff1663095ea7b38660006040516024016123fa929190613a07565b604051602081830303815290604052915060e01b6020820180517bffffffffffffffffffffffffffffffffffffffffffffffffffffffff83818316178352505050506126c1565b61244b84826126c1565b5b50505050565b600033905090565b6000600260009054906101000a900473ffffffffffffffffffffffffffffffffffffffff1673ffffffffffffffffffffffffffffffffffffffff1663e0c862896040518163ffffffff1660e01b8152600401600060405180830381600087803b1580156124c657600080fd5b505af11580156124da573d6000803e3d6000fd5b50505050600160009054906101000a900473ffffffffffffffffffffffffffffffffffffffff1673ffffffffffffffffffffffffffffffffffffffff1663808974ff600260009054906101000a900473ffffffffffffffffffffffffffffffffffffffff1673ffffffffffffffffffffffffffffffffffffffff1663e89e106a6040518163ffffffff1660e01b8152600401602060405180830381865afa158015612589573d6000803e3d6000fd5b505050506040513d601f19601f820116820180604052508101906125ad919061368d565b600260009054906101000a900473ffffffffffffffffffffffffffffffffffffffff166040518363ffffffff1660e01b81526004016125ed929190613a30565b600060405180830381600087803b15801561260757600080fd5b505af115801561261b573d6000803e3d6000fd5b50505050600260009054906101000a900473ffffffffffffffffffffffffffffffffffffffff1673ffffffffffffffffffffffffffffffffffffffff1663f6eaffc860006040518263ffffffff1660e01b815260040161267b9190613a59565b602060405180830381865afa158015612698573d6000803e3d6000fd5b505050506040513d601f19601f820116820180604052508101906126bc919061368d565b905090565b600080602060008451602086016000885af1806126e4576040513d6000823e3d81fd5b3d9250600051915050600082146126ff57600181141561271b565b60008473ffffffffffffffffffffffffffffffffffffffff163b145b1561275d57836040517f5274afe70000000000000000000000000000000000000000000000000000000081526004016127549190612eb0565b60405180910390fd5b50505050565b60007ff0c57e16840df040f15088dc2f81fe391c3923bec73e23a9662efc9c229c6a0060001b905090565b6127966128b4565b6127cc576040517fd7e6bcf800000000000000000000000000000000000000000000000000000000815260040160405180910390fd5b565b6127d661278e565b600073ffffffffffffffffffffffffffffffffffffffff168173ffffffffffffffffffffffffffffffffffffffff16036128485760006040517f1e4fbdf700000000000000000000000000000000000000000000000000000000815260040161283f9190612eb0565b60405180910390fd5b6128518161221c565b50565b6000806000806020600086516020880160008a5af192503d915060005190508280156128a957506000821461288c57600181146128a8565b60008673ffffffffffffffffffffffffffffffffffffffff163b115b5b935050505092915050565b60006128be61231b565b60000160089054906101000a900460ff16905090565b6040518060c00160405280600073ffffffffffffffffffffffffffffffffffffffff168152602001600073ffffffffffffffffffffffffffffffffffffffff1681526020016000815260200160008152602001600060ff168152602001600081525090565b5080546000825590600052602060002090810190612957919061295a565b50565b5b8082111561297357600081600090555060010161295b565b5090565b6000604051905090565b600080fd5b600080fd5b600073ffffffffffffffffffffffffffffffffffffffff82169050919050565b60006129b68261298b565b9050919050565b6129c6816129ab565b81146129d157600080fd5b50565b6000813590506129e3816129bd565b92915050565b6000819050919050565b6129fc816129e9565b8114612a0757600080fd5b50565b600081359050612a19816129f3565b92915050565b600060ff82169050919050565b612a3581612a1f565b8114612a4057600080fd5b50565b600081359050612a5281612a2c565b92915050565b6000819050919050565b612a6b81612a58565b8114612a7657600080fd5b50565b600081359050612a8881612a62565b92915050565b60008060008060008060c08789031215612aab57612aaa612981565b5b6000612ab989828a016129d4565b9650506020612aca89828a01612a0a565b9550506040612adb89828a01612a0a565b9450506060612aec89828a01612a43565b9350506080612afd89828a01612a79565b92505060a0612b0e89828a01612a79565b9150509295509295509295565b60008060408385031215612b3257612b31612981565b5b6000612b40858286016129d4565b9250506020612b51858286016129d4565b9150509250929050565b600080fd5b600080fd5b600080fd5b60008083601f840112612b8057612b7f612b5b565b5b8235905067ffffffffffffffff811115612b9d57612b9c612b60565b5b602083019150836001820283011115612bb957612bb8612b65565b5b9250929050565b60008060208385031215612bd757612bd6612981565b5b600083013567ffffffffffffffff811115612bf557612bf4612986565b5b612c0185828601612b6a565b92509250509250929050565b60008060408385031215612c2457612c23612981565b5b6000612c32858286016129d4565b9250506020612c4385828601612a0a565b9150509250929050565b60008115159050919050565b612c6281612c4d565b82525050565b600081519050919050565b600082825260208201905092915050565b60005b83811015612ca2578082015181840152602081019050612c87565b60008484015250505050565b6000601f19601f8301169050919050565b6000612cca82612c68565b612cd48185612c73565b9350612ce4818560208601612c84565b612ced81612cae565b840191505092915050565b6000604082019050612d0d6000830185612c59565b8181036020830152612d1f8184612cbf565b90509392505050565b600081519050919050565b600082825260208201905092915050565b6000819050602082019050919050565b612d5d816129ab565b82525050565b612d6c816129e9565b82525050565b612d7b81612a1f565b82525050565b60c082016000820151612d976000850182612d54565b506020820151612daa6020850182612d54565b506040820151612dbd6040850182612d63565b506060820151612dd06060850182612d63565b506080820151612de36080850182612d72565b5060a0820151612df660a0850182612d63565b50505050565b6000612e088383612d81565b60c08301905092915050565b6000602082019050919050565b6000612e2c82612d28565b612e368185612d33565b9350612e4183612d44565b8060005b83811015612e72578151612e598882612dfc565b9750612e6483612e14565b925050600181019050612e45565b5085935050505092915050565b60006020820190508181036000830152612e998184612e21565b905092915050565b612eaa816129ab565b82525050565b6000602082019050612ec56000830184612ea1565b92915050565b612ed4816129e9565b82525050565b6000602082019050612eef6000830184612ecb565b92915050565b7f4e487b7100000000000000000000000000000000000000000000000000000000600052604160045260246000fd5b612f2d82612cae565b810181811067ffffffffffffffff82111715612f4c57612f4b612ef5565b5b80604052505050565b6000612f5f612977565b9050612f6b8282612f24565b919050565b600067ffffffffffffffff821115612f8b57612f8a612ef5565b5b602082029050602081019050919050565b6000612faf612faa84612f70565b612f55565b90508083825260208201905060208402830185811115612fd257612fd1612b65565b5b835b81811015612ffb5780612fe788826129d4565b845260208401935050602081019050612fd4565b5050509392505050565b600082601f83011261301a57613019612b5b565b5b813561302a848260208601612f9c565b91505092915050565b600061303e826129ab565b9050919050565b61304e81613033565b811461305957600080fd5b50565b60008135905061306b81613045565b92915050565b600061307c826129ab565b9050919050565b61308c81613071565b811461309757600080fd5b50565b6000813590506130a981613083565b92915050565b60006130ba826129ab565b9050919050565b6130ca816130af565b81146130d557600080fd5b50565b6000813590506130e7816130c1565b92915050565b60006130f8826129ab565b9050919050565b613108816130ed565b811461311357600080fd5b50565b600081359050613125816130ff565b92915050565b600080600080600080600060e0888a03121561314a57613149612981565b5b60006131588a828b01612a0a565b975050602088013567ffffffffffffffff81111561317957613178612986565b5b6131858a828b01613005565b965050604088013567ffffffffffffffff8111156131a6576131a5612986565b5b6131b28a828b01613005565b95505060606131c38a828b0161305c565b94505060806131d48a828b0161309a565b93505060a06131e58a828b016130d8565b92505060c06131f68a828b01613116565b91505092959891949750929550565b60006020828403121561321b5761321a612981565b5b6000613229848285016129d4565b91505092915050565b61323b81612a1f565b82525050565b60006080820190506132566000830187612ea1565b6132636020830186612ecb565b6132706040830185612ecb565b61327d6060830184613232565b95945050505050565b60006020828403121561329c5761329b612981565b5b60006132aa84828501612a0a565b91505092915050565b600082825260208201905092915050565b7f546f6b656e206973206e6f7420616c6c6f776564000000000000000000000000600082015250565b60006132fa6014836132b3565b9150613305826132c4565b602082019050919050565b60006020820190508181036000830152613329816132ed565b9050919050565b7f596f75206e65656420746f206465706f73697420736f6d657468696e67000000600082015250565b6000613366601d836132b3565b915061337182613330565b602082019050919050565b6000602082019050818103600083015261339581613359565b9050919050565b7f596f7520616c7265616479207061727469636970617465000000000000000000600082015250565b60006133d26017836132b3565b91506133dd8261339c565b602082019050919050565b60006020820190508181036000830152613401816133c5565b9050919050565b6000819050919050565b61341b81613408565b811461342657600080fd5b50565b60008151905061343881613412565b92915050565b60008151905061344d81612a2c565b92915050565b6000806040838503121561346a57613469612981565b5b600061347885828601613429565b92505060206134898582860161343e565b9150509250929050565b7f546f6b656e206973206e6f7420737570706f72746564206f72206e6f7420617660008201527f61696c61626c6520617420746865206d6f6d656e740000000000000000000000602082015250565b60006134ef6035836132b3565b91506134fa82613493565b604082019050919050565b6000602082019050818103600083015261351e816134e2565b9050919050565b61352e81612a58565b82525050565b600060e082019050613549600083018a612ea1565b6135566020830189612ea1565b6135636040830188612ecb565b6135706060830187612ecb565b61357d6080830186613232565b61358a60a0830185613525565b61359760c0830184613525565b98975050505050505050565b60006060820190506135b86000830186612ea1565b6135c56020830185612ea1565b6135d26040830184612ecb565b949350505050565b6135e381612c4d565b81146135ee57600080fd5b50565b600081519050613600816135da565b92915050565b60006020828403121561361c5761361b612981565b5b600061362a848285016135f1565b91505092915050565b60006080820190506136486000830187612ea1565b6136556020830186612ecb565b6136626040830185612ea1565b61366f6060830184612ea1565b95945050505050565b600081519050613687816129f3565b92915050565b6000602082840312156136a3576136a2612981565b5b60006136b184828501613678565b91505092915050565b6000815190506136c9816129bd565b92915050565b6000602082840312156136e5576136e4612981565b5b60006136f3848285016136ba565b91505092915050565b7f4e487b7100000000000000000000000000000000000000000000000000000000600052601160045260246000fd5b6000613736826129e9565b9150613741836129e9565b9250828201905080821115613759576137586136fc565b5b92915050565b600061376a826129e9565b9150613775836129e9565b9250828202613783816129e9565b9150828204841483151761379a576137996136fc565b5b5092915050565b60006137ac826129e9565b91506137b7836129e9565b92508282039050818111156137cf576137ce6136fc565b5b92915050565b7f4e487b7100000000000000000000000000000000000000000000000000000000600052603260045260246000fd5b7f4e487b7100000000000000000000000000000000000000000000000000000000600052601260045260246000fd5b600061383e826129e9565b9150613849836129e9565b92508261385957613858613804565b5b828204905092915050565b6000819050919050565b600067ffffffffffffffff82169050919050565b6000819050919050565b60006138a76138a261389d84613864565b613882565b61386e565b9050919050565b6138b78161388c565b82525050565b60006020820190506138d260008301846138ae565b92915050565b60006040820190506138ed6000830185612ea1565b6138fa6020830184612ea1565b9392505050565b600061390c826129e9565b9150613917836129e9565b92508261392757613926613804565b5b828206905092915050565b600061393d826129e9565b91507fffffffffffffffffffffffffffffffffffffffffffffffffffffffffffffffff820361396f5761396e6136fc565b5b600182019050919050565b600060408201905061398f6000830185612ecb565b61399c6020830184612ecb565b9392505050565b60006040820190506139b86000830185612ea1565b6139c56020830184612ecb565b9392505050565b6000819050919050565b60006139f16139ec6139e7846139cc565b613882565b6129e9565b9050919050565b613a01816139d6565b82525050565b6000604082019050613a1c6000830185612ea1565b613a2960208301846139f8565b9392505050565b6000604082019050613a456000830185612ecb565b613a526020830184612ea1565b9392505050565b6000602082019050613a6e60008301846139f8565b9291505056fea26469706673582212200236c27886397abf3a85508cf32a1abb735a871767aa2ef401002991f143654464736f6c634300081c0033",
  "linkReferences": {},
  "deployedLinkReferences": {}
}