{
  "_format": "hh-sol-artifact-1",
  "contractName": "Raffle",
  "sourceName": "contracts/Raffle.sol",
  "abi": [
    {
      "inputs": [],
      "name": "InvalidInitialization",
      "type": "error"
    },
    {
      "inputs": [],
      "name": "NotInitializing",
      "type": "error"
    },
    {
      "inputs": [
        {
          "internalType": "address",
          "name": "owner",
          "type": "address"
        }
      ],
      "name": "OwnableInvalidOwner",
      "type": "error"
    },
    {
      "inputs": [
        {
          "internalType": "address",
          "name": "account",
          "type": "address"
        }
      ],
      "name": "OwnableUnauthorizedAccount",
      "type": "error"
    },
    {
      "inputs": [
        {
          "internalType": "address",
          "name": "token",
          "type": "address"
        }
      ],
      "name": "SafeERC20FailedOperation",
      "type": "error"
    },
    {
      "anonymous": false,
      "inputs": [
        {
          "indexed": false,
          "internalType": "uint64",
          "name": "version",
          "type": "uint64"
        }
      ],
      "name": "Initialized",
      "type": "event"
    },
    {
      "anonymous": false,
      "inputs": [
        {
          "indexed": true,
          "internalType": "address",
          "name": "previousOwner",
          "type": "address"
        },
        {
          "indexed": true,
          "internalType": "address",
          "name": "newOwner",
          "type": "address"
        }
      ],
      "name": "OwnershipTransferred",
      "type": "event"
    },
    {
      "anonymous": false,
      "inputs": [
        {
          "indexed": false,
          "internalType": "address",
          "name": "player",
          "type": "address"
        },
        {
          "indexed": true,
          "internalType": "uint256",
          "name": "amountDepositedInUsd",
          "type": "uint256"
        }
      ],
      "name": "PlayerJoined",
      "type": "event"
    },
    {
      "anonymous": false,
      "inputs": [
        {
          "indexed": true,
          "internalType": "address",
          "name": "winner",
          "type": "address"
        },
        {
          "indexed": true,
          "internalType": "uint256",
          "name": "winAmountInUsd",
          "type": "uint256"
        },
        {
          "indexed": true,
          "internalType": "uint256",
          "name": "winAmountInEth",
          "type": "uint256"
        }
      ],
      "name": "WinnerSelected",
      "type": "event"
    },
    {
      "inputs": [
        {
          "internalType": "address",
          "name": "tokenAddress",
          "type": "address"
        },
        {
          "internalType": "address",
          "name": "feedAddress",
          "type": "address"
        }
      ],
      "name": "addAllowedToken",
      "outputs": [],
      "stateMutability": "nonpayable",
      "type": "function"
    },
    {
      "inputs": [],
      "name": "canBePlayed",
      "outputs": [
        {
          "internalType": "bool",
          "name": "",
          "type": "bool"
        }
      ],
      "stateMutability": "view",
      "type": "function"
    },
    {
      "inputs": [
        {
          "internalType": "bytes",
          "name": "",
          "type": "bytes"
        }
      ],
      "name": "checkUpkeep",
      "outputs": [
        {
          "internalType": "bool",
          "name": "upkeepNeeded",
          "type": "bool"
        },
        {
          "internalType": "bytes",
          "name": "",
          "type": "bytes"
        }
      ],
      "stateMutability": "view",
      "type": "function"
    },
    {
      "inputs": [
        {
          "internalType": "address",
          "name": "_tokenAddress",
          "type": "address"
        },
        {
          "internalType": "uint256",
          "name": "_amount",
          "type": "uint256"
        }
      ],
      "name": "deposit",
      "outputs": [],
      "stateMutability": "nonpayable",
      "type": "function"
    },
    {
      "inputs": [],
      "name": "gamesCount",
      "outputs": [
        {
          "internalType": "uint256",
          "name": "",
          "type": "uint256"
        }
      ],
      "stateMutability": "view",
      "type": "function"
    },
    {
      "inputs": [],
      "name": "getPlayers",
      "outputs": [
        {
          "components": [
            {
              "internalType": "address",
              "name": "playerAddress",
              "type": "address"
            },
            {
              "internalType": "address",
              "name": "depositedTokenAddress",
              "type": "address"
            },
            {
              "internalType": "uint256",
              "name": "depositedTokenAmount",
              "type": "uint256"
            },
            {
              "internalType": "uint256",
              "name": "amountDepositedInUsd",
              "type": "uint256"
            },
            {
              "internalType": "uint8",
              "name": "decimals",
              "type": "uint8"
            },
            {
              "internalType": "uint256",
              "name": "stake",
              "type": "uint256"
            }
          ],
          "internalType": "struct Raffle.ResultPlayer[]",
          "name": "",
          "type": "tuple[]"
        }
      ],
      "stateMutability": "view",
      "type": "function"
    },
    {
      "inputs": [
        {
          "internalType": "uint256",
          "name": "_interval",
          "type": "uint256"
        },
        {
          "internalType": "address[]",
          "name": "_tokens",
          "type": "address[]"
        },
        {
          "internalType": "address[]",
          "name": "_feed",
          "type": "address[]"
        },
        {
          "internalType": "contract Swapper",
          "name": "_swapper",
          "type": "address"
        },
        {
          "internalType": "contract VRFMock",
          "name": "_vrfMock",
          "type": "address"
        },
        {
          "internalType": "contract VRFv2Consumer",
          "name": "_vrfConsumer",
          "type": "address"
        },
        {
          "internalType": "contract ExchangeFeedFetcher",
          "name": "_feedFetcher",
          "type": "address"
        }
      ],
      "name": "initialize",
      "outputs": [],
      "stateMutability": "nonpayable",
      "type": "function"
    },
    {
      "inputs": [],
      "name": "interval",
      "outputs": [
        {
          "internalType": "uint256",
          "name": "",
          "type": "uint256"
        }
      ],
      "stateMutability": "view",
      "type": "function"
    },
    {
      "inputs": [],
      "name": "lastRaffleTimestamp",
      "outputs": [
        {
          "internalType": "uint256",
          "name": "",
          "type": "uint256"
        }
      ],
      "stateMutability": "view",
      "type": "function"
    },
    {
      "inputs": [],
      "name": "owner",
      "outputs": [
        {
          "internalType": "address",
          "name": "",
          "type": "address"
        }
      ],
      "stateMutability": "view",
      "type": "function"
    },
    {
      "inputs": [
        {
          "internalType": "bytes",
          "name": "",
          "type": "bytes"
        }
      ],
      "name": "performUpkeep",
      "outputs": [],
      "stateMutability": "nonpayable",
      "type": "function"
    },
    {
      "inputs": [
        {
          "internalType": "uint256",
          "name": "",
          "type": "uint256"
        }
      ],
      "name": "players",
      "outputs": [
        {
          "internalType": "address",
          "name": "",
          "type": "address"
        }
      ],
      "stateMutability": "view",
      "type": "function"
    },
    {
      "inputs": [
        {
          "internalType": "address",
          "name": "",
          "type": "address"
        }
      ],
      "name": "playersOfCurrentRaffle",
      "outputs": [
        {
          "internalType": "address",
          "name": "depositedTokenAddress",
          "type": "address"
        },
        {
          "internalType": "uint256",
          "name": "depositedTokenAmount",
          "type": "uint256"
        },
        {
          "internalType": "uint256",
          "name": "amountDepositedInUsd",
          "type": "uint256"
        },
        {
          "internalType": "uint8",
          "name": "decimals",
          "type": "uint8"
        }
      ],
      "stateMutability": "view",
      "type": "function"
    },
    {
      "inputs": [],
      "name": "renounceOwnership",
      "outputs": [],
      "stateMutability": "nonpayable",
      "type": "function"
    },
    {
      "inputs": [
        {
          "internalType": "address",
          "name": "",
          "type": "address"
        }
      ],
      "name": "tokensAllowedWithFeed",
      "outputs": [
        {
          "internalType": "address",
          "name": "",
          "type": "address"
        }
      ],
      "stateMutability": "view",
      "type": "function"
    },
    {
      "inputs": [],
      "name": "totalAmountInEth",
      "outputs": [
        {
          "internalType": "uint256",
          "name": "",
          "type": "uint256"
        }
      ],
      "stateMutability": "view",
      "type": "function"
    },
    {
      "inputs": [],
      "name": "totalAmountInUsd",
      "outputs": [
        {
          "internalType": "uint256",
          "name": "",
          "type": "uint256"
        }
      ],
      "stateMutability": "view",
      "type": "function"
    },
    {
      "inputs": [
        {
          "internalType": "address",
          "name": "newOwner",
          "type": "address"
        }
      ],
      "name": "transferOwnership",
      "outputs": [],
      "stateMutability": "nonpayable",
      "type": "function"
    },
    {
      "stateMutability": "payable",
      "type": "receive"
    }
  ],
  "bytecode": "0x6080604052348015600f57600080fd5b506131338061001f6000396000f3fe60806040526004361061010d5760003560e01c8063981e0b1d11610095578063ca459e0311610064578063ca459e031461033f578063d0faec601461037c578063f2fde38b146103bc578063f71d96cb146103e5578063fb632b7c1461042257610114565b8063981e0b1d14610295578063ba6771fb146102c0578063bb36c91e146102eb578063be3f57851461031657610114565b80636e04ff0d116100dc5780636e04ff0d146101bf578063715018a6146101fd5780638b5b9ccc146102145780638da5cb5b1461023f578063947a36fb1461026a57610114565b80630c636b0214610119578063305e94cd146101445780634585e33b1461016d57806347e7ef241461019657610114565b3661011457005b600080fd5b34801561012557600080fd5b5061012e61044d565b60405161013b91906121d6565b60405180910390f35b34801561015057600080fd5b5061016b60048036038101906101669190612263565b610453565b005b34801561017957600080fd5b50610194600480360381019061018f9190612308565b6104dd565b005b3480156101a257600080fd5b506101bd60048036038101906101b89190612381565b61051a565b005b3480156101cb57600080fd5b506101e660048036038101906101e19190612308565b610c50565b6040516101f492919061246c565b60405180910390f35b34801561020957600080fd5b50610212610c88565b005b34801561022057600080fd5b50610229610c9c565b6040516102369190612600565b60405180910390f35b34801561024b57600080fd5b5061025461109e565b6040516102619190612631565b60405180910390f35b34801561027657600080fd5b5061027f6110d6565b60405161028c91906121d6565b60405180910390f35b3480156102a157600080fd5b506102aa6110dc565b6040516102b791906121d6565b60405180910390f35b3480156102cc57600080fd5b506102d56110e2565b6040516102e291906121d6565b60405180910390f35b3480156102f757600080fd5b506103006110e8565b60405161030d919061264c565b60405180910390f35b34801561032257600080fd5b5061033d6004803603810190610338919061289d565b6110fb565b005b34801561034b57600080fd5b5061036660048036038101906103619190612977565b61147b565b6040516103739190612631565b60405180910390f35b34801561038857600080fd5b506103a3600480360381019061039e9190612977565b6114ae565b6040516103b394939291906129b3565b60405180910390f35b3480156103c857600080fd5b506103e360048036038101906103de9190612977565b61150b565b005b3480156103f157600080fd5b5061040c600480360381019061040791906129f8565b611591565b6040516104199190612631565b60405180910390f35b34801561042e57600080fd5b506104376115d0565b60405161044491906121d6565b60405180910390f35b60065481565b61045b6115d6565b80600460008473ffffffffffffffffffffffffffffffffffffffff1673ffffffffffffffffffffffffffffffffffffffff16815260200190815260200160002060006101000a81548173ffffffffffffffffffffffffffffffffffffffff021916908373ffffffffffffffffffffffffffffffffffffffff1602179055505050565b600860009054906101000a900460ff1680156105085750600754600654426105059190612a54565b10155b156105165761051561165d565b5b5050565b600073ffffffffffffffffffffffffffffffffffffffff16600460008473ffffffffffffffffffffffffffffffffffffffff1673ffffffffffffffffffffffffffffffffffffffff16815260200190815260200160002060009054906101000a900473ffffffffffffffffffffffffffffffffffffffff1673ffffffffffffffffffffffffffffffffffffffff16036105e8576040517f08c379a00000000000000000000000000000000000000000000000000000000081526004016105df90612ae5565b60405180910390fd5b6000811161062b576040517f08c379a000000000000000000000000000000000000000000000000000000000815260040161062290612b51565b60405180910390fd5b600073ffffffffffffffffffffffffffffffffffffffff16600c60003373ffffffffffffffffffffffffffffffffffffffff1673ffffffffffffffffffffffffffffffffffffffff16815260200190815260200160002060000160009054906101000a900473ffffffffffffffffffffffffffffffffffffffff1673ffffffffffffffffffffffffffffffffffffffff16146106fc576040517f08c379a00000000000000000000000000000000000000000000000000000000081526004016106f390612bbd565b60405180910390fd5b600080600360009054906101000a900473ffffffffffffffffffffffffffffffffffffffff1673ffffffffffffffffffffffffffffffffffffffff1663f2f201dc600460008773ffffffffffffffffffffffffffffffffffffffff1673ffffffffffffffffffffffffffffffffffffffff16815260200190815260200160002060009054906101000a900473ffffffffffffffffffffffffffffffffffffffff166040518263ffffffff1660e01b81526004016107b99190612631565b6040805180830381865afa1580156107d5573d6000803e3d6000fd5b505050506040513d601f19601f820116820180604052508101906107f99190612c3f565b9150915060008213610840576040517f08c379a000000000000000000000000000000000000000000000000000000000815260040161083790612cf1565b60405180910390fd5b61086d3330858773ffffffffffffffffffffffffffffffffffffffff16611944909392919063ffffffff16565b6108b860008054906101000a900473ffffffffffffffffffffffffffffffffffffffff16848673ffffffffffffffffffffffffffffffffffffffff166119c69092919063ffffffff16565b60008060009054906101000a900473ffffffffffffffffffffffffffffffffffffffff1673ffffffffffffffffffffffffffffffffffffffff166322f32c88868630306040518563ffffffff1660e01b815260040161091a9493929190612d11565b6020604051808303816000875af1158015610939573d6000803e3d6000fd5b505050506040513d601f19601f8201168201806040525081019061095d9190612d6b565b905060008054906101000a900473ffffffffffffffffffffffffffffffffffffffff1673ffffffffffffffffffffffffffffffffffffffff16634aa4a4fc6040518163ffffffff1660e01b8152600401602060405180830381865afa1580156109ca573d6000803e3d6000fd5b505050506040513d601f19601f820116820180604052508101906109ee9190612dad565b73ffffffffffffffffffffffffffffffffffffffff16632e1a7d4d826040518263ffffffff1660e01b8152600401610a2691906121d6565b600060405180830381600087803b158015610a4057600080fd5b505af1158015610a54573d6000803e3d6000fd5b5050505080600a6000828254610a6a9190612dda565b9250508190555060008484610a7f9190612e0e565b9050600b339080600181540180825580915050600190039060005260206000200160009091909190916101000a81548173ffffffffffffffffffffffffffffffffffffffff021916908373ffffffffffffffffffffffffffffffffffffffff16021790555060405180608001604052808773ffffffffffffffffffffffffffffffffffffffff1681526020018681526020018281526020018460ff16815250600c60003373ffffffffffffffffffffffffffffffffffffffff1673ffffffffffffffffffffffffffffffffffffffff16815260200190815260200160002060008201518160000160006101000a81548173ffffffffffffffffffffffffffffffffffffffff021916908373ffffffffffffffffffffffffffffffffffffffff160217905550602082015181600101556040820151816002015560608201518160030160006101000a81548160ff021916908360ff1602179055509050508060096000828254610bee9190612dda565b925050819055506001600860006101000a81548160ff021916908315150217905550807f3330a6773675f31f62070870f40379f8c6d42e3761410011a4dfc42b18043d2f33604051610c409190612631565b60405180910390a2505050505050565b60006060600860009054906101000a900460ff168015610c7f575060075460065442610c7c9190612a54565b10155b91509250929050565b610c906115d6565b610c9a6000611a62565b565b60606000600b8054905067ffffffffffffffff811115610cbf57610cbe612667565b5b604051908082528060200260200182016040528015610cf857816020015b610ce561211a565b815260200190600190039081610cdd5790505b50905060005b600b80549050811015611096576040518060c00160405280600b8381548110610d2a57610d29612e50565b5b9060005260206000200160009054906101000a900473ffffffffffffffffffffffffffffffffffffffff1673ffffffffffffffffffffffffffffffffffffffff168152602001600c6000600b8581548110610d8857610d87612e50565b5b9060005260206000200160009054906101000a900473ffffffffffffffffffffffffffffffffffffffff1673ffffffffffffffffffffffffffffffffffffffff1673ffffffffffffffffffffffffffffffffffffffff16815260200190815260200160002060000160009054906101000a900473ffffffffffffffffffffffffffffffffffffffff1673ffffffffffffffffffffffffffffffffffffffff168152602001600c6000600b8581548110610e4457610e43612e50565b5b9060005260206000200160009054906101000a900473ffffffffffffffffffffffffffffffffffffffff1673ffffffffffffffffffffffffffffffffffffffff1673ffffffffffffffffffffffffffffffffffffffff168152602001908152602001600020600101548152602001600c6000600b8581548110610eca57610ec9612e50565b5b9060005260206000200160009054906101000a900473ffffffffffffffffffffffffffffffffffffffff1673ffffffffffffffffffffffffffffffffffffffff1673ffffffffffffffffffffffffffffffffffffffff168152602001908152602001600020600201548152602001600c6000600b8581548110610f5057610f4f612e50565b5b9060005260206000200160009054906101000a900473ffffffffffffffffffffffffffffffffffffffff1673ffffffffffffffffffffffffffffffffffffffff1673ffffffffffffffffffffffffffffffffffffffff16815260200190815260200160002060030160009054906101000a900460ff1660ff1681526020016009546064600c6000600b8781548110610feb57610fea612e50565b5b9060005260206000200160009054906101000a900473ffffffffffffffffffffffffffffffffffffffff1673ffffffffffffffffffffffffffffffffffffffff1673ffffffffffffffffffffffffffffffffffffffff1681526020019081526020016000206002015461105e9190612e0e565b6110689190612eae565b81525082828151811061107e5761107d612e50565b5b60200260200101819052508080600101915050610cfe565b508091505090565b6000806110a9611b39565b90508060000160009054906101000a900473ffffffffffffffffffffffffffffffffffffffff1691505090565b60075481565b600a5481565b60095481565b600860009054906101000a900460ff1681565b6000611105611b61565b905060008160000160089054906101000a900460ff1615905060008260000160009054906101000a900467ffffffffffffffff1690506000808267ffffffffffffffff161480156111535750825b9050600060018367ffffffffffffffff16148015611188575060003073ffffffffffffffffffffffffffffffffffffffff163b145b905081158015611196575080155b156111cd576040517ff92ee8a900000000000000000000000000000000000000000000000000000000815260040160405180910390fd5b60018560000160006101000a81548167ffffffffffffffff021916908367ffffffffffffffff160217905550831561121d5760018560000160086101000a81548160ff0219169083151502179055505b89518a511461122b57600080fd5b61123433611b75565b886000806101000a81548173ffffffffffffffffffffffffffffffffffffffff021916908373ffffffffffffffffffffffffffffffffffffffff16021790555087600160006101000a81548173ffffffffffffffffffffffffffffffffffffffff021916908373ffffffffffffffffffffffffffffffffffffffff16021790555086600260006101000a81548173ffffffffffffffffffffffffffffffffffffffff021916908373ffffffffffffffffffffffffffffffffffffffff16021790555085600360006101000a81548173ffffffffffffffffffffffffffffffffffffffff021916908373ffffffffffffffffffffffffffffffffffffffff1602179055508b6007819055504260068190555060005b8b51811015611410578a818151811061136457611363612e50565b5b6020026020010151600460008e848151811061138357611382612e50565b5b602002602001015173ffffffffffffffffffffffffffffffffffffffff1673ffffffffffffffffffffffffffffffffffffffff16815260200190815260200160002060006101000a81548173ffffffffffffffffffffffffffffffffffffffff021916908373ffffffffffffffffffffffffffffffffffffffff1602179055508080600101915050611348565b50831561146d5760008560000160086101000a81548160ff0219169083151502179055507fc7f505b2f371ae2175ee4913f4499e1f2633a7b5936321eed1cdaeb6115181d260016040516114649190612f38565b60405180910390a15b505050505050505050505050565b60046020528060005260406000206000915054906101000a900473ffffffffffffffffffffffffffffffffffffffff1681565b600c6020528060005260406000206000915090508060000160009054906101000a900473ffffffffffffffffffffffffffffffffffffffff16908060010154908060020154908060030160009054906101000a900460ff16905084565b6115136115d6565b600073ffffffffffffffffffffffffffffffffffffffff168173ffffffffffffffffffffffffffffffffffffffff16036115855760006040517f1e4fbdf700000000000000000000000000000000000000000000000000000000815260040161157c9190612631565b60405180910390fd5b61158e81611a62565b50565b600b81815481106115a157600080fd5b906000526020600020016000915054906101000a900473ffffffffffffffffffffffffffffffffffffffff1681565b60055481565b6115de611b89565b73ffffffffffffffffffffffffffffffffffffffff166115fc61109e565b73ffffffffffffffffffffffffffffffffffffffff161461165b5761161f611b89565b6040517f118cdaa70000000000000000000000000000000000000000000000000000000081526004016116529190612631565b60405180910390fd5b565b6000611667611b91565b90506000600954826116799190612f53565b905060008080600090505b600b8054905081101561177a57600c6000600b83815481106116a9576116a8612e50565b5b9060005260206000200160009054906101000a900473ffffffffffffffffffffffffffffffffffffffff1673ffffffffffffffffffffffffffffffffffffffff1673ffffffffffffffffffffffffffffffffffffffff168152602001908152602001600020600201548361171d9190612dda565b92508284101561176d57600b818154811061173b5761173a612e50565b5b9060005260206000200160009054906101000a900473ffffffffffffffffffffffffffffffffffffffff16915061177a565b8080600101915050611684565b508073ffffffffffffffffffffffffffffffffffffffff166108fc600a549081150290604051600060405180830381858888f193505050501580156117c3573d6000803e3d6000fd5b5042600681905550600560008154809291906117de90612f84565b91905055506000600860006101000a81548160ff02191690831515021790555060005b600b805490508110156118e657600c6000600b838154811061182657611825612e50565b5b9060005260206000200160009054906101000a900473ffffffffffffffffffffffffffffffffffffffff1673ffffffffffffffffffffffffffffffffffffffff1673ffffffffffffffffffffffffffffffffffffffff168152602001908152602001600020600080820160006101000a81549073ffffffffffffffffffffffffffffffffffffffff0219169055600182016000905560028201600090556003820160006101000a81549060ff021916905550508080600101915050611801565b50600b60006118f5919061217f565b600a546009548273ffffffffffffffffffffffffffffffffffffffff167f866efae43947560fe9d0de9013bc323d5718730d5c1543261b48a7bcb0717b9360405160405180910390a450505050565b6119c0848573ffffffffffffffffffffffffffffffffffffffff166323b872dd86868660405160240161197993929190612fcc565b604051602081830303815290604052915060e01b6020820180517bffffffffffffffffffffffffffffffffffffffffffffffffffffffff8381831617835250505050611df8565b50505050565b60008373ffffffffffffffffffffffffffffffffffffffff1663dd62ed3e30856040518363ffffffff1660e01b8152600401611a03929190613003565b602060405180830381865afa158015611a20573d6000803e3d6000fd5b505050506040513d601f19601f82011682018060405250810190611a449190612d6b565b9050611a5c84848484611a579190612dda565b611e9a565b50505050565b6000611a6c611b39565b905060008160000160009054906101000a900473ffffffffffffffffffffffffffffffffffffffff169050828260000160006101000a81548173ffffffffffffffffffffffffffffffffffffffff021916908373ffffffffffffffffffffffffffffffffffffffff1602179055508273ffffffffffffffffffffffffffffffffffffffff168173ffffffffffffffffffffffffffffffffffffffff167f8be0079c531659141344cd1fd0a4f28419497f9722a3daafe3b4186f6b6457e060405160405180910390a3505050565b60007f9016d09d72d40fdae2fd8ceac6b6234c7706214fd39c1cd1e609a0528c199300905090565b600080611b6c611fa9565b90508091505090565b611b7d611fd4565b611b8681612014565b50565b600033905090565b6000600260009054906101000a900473ffffffffffffffffffffffffffffffffffffffff1673ffffffffffffffffffffffffffffffffffffffff1663e0c862896040518163ffffffff1660e01b8152600401600060405180830381600087803b158015611bfd57600080fd5b505af1158015611c11573d6000803e3d6000fd5b50505050600160009054906101000a900473ffffffffffffffffffffffffffffffffffffffff1673ffffffffffffffffffffffffffffffffffffffff1663808974ff600260009054906101000a900473ffffffffffffffffffffffffffffffffffffffff1673ffffffffffffffffffffffffffffffffffffffff1663e89e106a6040518163ffffffff1660e01b8152600401602060405180830381865afa158015611cc0573d6000803e3d6000fd5b505050506040513d601f19601f82011682018060405250810190611ce49190612d6b565b600260009054906101000a900473ffffffffffffffffffffffffffffffffffffffff166040518363ffffffff1660e01b8152600401611d2492919061302c565b600060405180830381600087803b158015611d3e57600080fd5b505af1158015611d52573d6000803e3d6000fd5b50505050600260009054906101000a900473ffffffffffffffffffffffffffffffffffffffff1673ffffffffffffffffffffffffffffffffffffffff1663f6eaffc860006040518263ffffffff1660e01b8152600401611db29190613090565b602060405180830381865afa158015611dcf573d6000803e3d6000fd5b505050506040513d601f19601f82011682018060405250810190611df39190612d6b565b905090565b600080602060008451602086016000885af180611e1b576040513d6000823e3d81fd5b3d925060005191505060008214611e36576001811415611e52565b60008473ffffffffffffffffffffffffffffffffffffffff163b145b15611e9457836040517f5274afe7000000000000000000000000000000000000000000000000000000008152600401611e8b9190612631565b60405180910390fd5b50505050565b60008373ffffffffffffffffffffffffffffffffffffffff1663095ea7b38484604051602401611ecb9291906130ab565b604051602081830303815290604052915060e01b6020820180517bffffffffffffffffffffffffffffffffffffffffffffffffffffffff83818316178352505050509050611f19848261209a565b611fa357611f98848573ffffffffffffffffffffffffffffffffffffffff1663095ea7b3866000604051602401611f519291906130d4565b604051602081830303815290604052915060e01b6020820180517bffffffffffffffffffffffffffffffffffffffffffffffffffffffff8381831617835250505050611df8565b611fa28482611df8565b5b50505050565b60007ff0c57e16840df040f15088dc2f81fe391c3923bec73e23a9662efc9c229c6a0060001b905090565b611fdc6120fa565b612012576040517fd7e6bcf800000000000000000000000000000000000000000000000000000000815260040160405180910390fd5b565b61201c611fd4565b600073ffffffffffffffffffffffffffffffffffffffff168173ffffffffffffffffffffffffffffffffffffffff160361208e5760006040517f1e4fbdf70000000000000000000000000000000000000000000000000000000081526004016120859190612631565b60405180910390fd5b61209781611a62565b50565b6000806000806020600086516020880160008a5af192503d915060005190508280156120ef5750600082146120d257600181146120ee565b60008673ffffffffffffffffffffffffffffffffffffffff163b115b5b935050505092915050565b6000612104611b61565b60000160089054906101000a900460ff16905090565b6040518060c00160405280600073ffffffffffffffffffffffffffffffffffffffff168152602001600073ffffffffffffffffffffffffffffffffffffffff1681526020016000815260200160008152602001600060ff168152602001600081525090565b508054600082559060005260206000209081019061219d91906121a0565b50565b5b808211156121b95760008160009055506001016121a1565b5090565b6000819050919050565b6121d0816121bd565b82525050565b60006020820190506121eb60008301846121c7565b92915050565b6000604051905090565b600080fd5b600080fd5b600073ffffffffffffffffffffffffffffffffffffffff82169050919050565b600061223082612205565b9050919050565b61224081612225565b811461224b57600080fd5b50565b60008135905061225d81612237565b92915050565b6000806040838503121561227a576122796121fb565b5b60006122888582860161224e565b92505060206122998582860161224e565b9150509250929050565b600080fd5b600080fd5b600080fd5b60008083601f8401126122c8576122c76122a3565b5b8235905067ffffffffffffffff8111156122e5576122e46122a8565b5b602083019150836001820283011115612301576123006122ad565b5b9250929050565b6000806020838503121561231f5761231e6121fb565b5b600083013567ffffffffffffffff81111561233d5761233c612200565b5b612349858286016122b2565b92509250509250929050565b61235e816121bd565b811461236957600080fd5b50565b60008135905061237b81612355565b92915050565b60008060408385031215612398576123976121fb565b5b60006123a68582860161224e565b92505060206123b78582860161236c565b9150509250929050565b60008115159050919050565b6123d6816123c1565b82525050565b600081519050919050565b600082825260208201905092915050565b60005b838110156124165780820151818401526020810190506123fb565b60008484015250505050565b6000601f19601f8301169050919050565b600061243e826123dc565b61244881856123e7565b93506124588185602086016123f8565b61246181612422565b840191505092915050565b600060408201905061248160008301856123cd565b81810360208301526124938184612433565b90509392505050565b600081519050919050565b600082825260208201905092915050565b6000819050602082019050919050565b6124d181612225565b82525050565b6124e0816121bd565b82525050565b600060ff82169050919050565b6124fc816124e6565b82525050565b60c08201600082015161251860008501826124c8565b50602082015161252b60208501826124c8565b50604082015161253e60408501826124d7565b50606082015161255160608501826124d7565b50608082015161256460808501826124f3565b5060a082015161257760a08501826124d7565b50505050565b60006125898383612502565b60c08301905092915050565b6000602082019050919050565b60006125ad8261249c565b6125b781856124a7565b93506125c2836124b8565b8060005b838110156125f35781516125da888261257d565b97506125e583612595565b9250506001810190506125c6565b5085935050505092915050565b6000602082019050818103600083015261261a81846125a2565b905092915050565b61262b81612225565b82525050565b60006020820190506126466000830184612622565b92915050565b600060208201905061266160008301846123cd565b92915050565b7f4e487b7100000000000000000000000000000000000000000000000000000000600052604160045260246000fd5b61269f82612422565b810181811067ffffffffffffffff821117156126be576126bd612667565b5b80604052505050565b60006126d16121f1565b90506126dd8282612696565b919050565b600067ffffffffffffffff8211156126fd576126fc612667565b5b602082029050602081019050919050565b600061272161271c846126e2565b6126c7565b90508083825260208201905060208402830185811115612744576127436122ad565b5b835b8181101561276d5780612759888261224e565b845260208401935050602081019050612746565b5050509392505050565b600082601f83011261278c5761278b6122a3565b5b813561279c84826020860161270e565b91505092915050565b60006127b082612225565b9050919050565b6127c0816127a5565b81146127cb57600080fd5b50565b6000813590506127dd816127b7565b92915050565b60006127ee82612225565b9050919050565b6127fe816127e3565b811461280957600080fd5b50565b60008135905061281b816127f5565b92915050565b600061282c82612225565b9050919050565b61283c81612821565b811461284757600080fd5b50565b60008135905061285981612833565b92915050565b600061286a82612225565b9050919050565b61287a8161285f565b811461288557600080fd5b50565b60008135905061289781612871565b92915050565b600080600080600080600060e0888a0312156128bc576128bb6121fb565b5b60006128ca8a828b0161236c565b975050602088013567ffffffffffffffff8111156128eb576128ea612200565b5b6128f78a828b01612777565b965050604088013567ffffffffffffffff81111561291857612917612200565b5b6129248a828b01612777565b95505060606129358a828b016127ce565b94505060806129468a828b0161280c565b93505060a06129578a828b0161284a565b92505060c06129688a828b01612888565b91505092959891949750929550565b60006020828403121561298d5761298c6121fb565b5b600061299b8482850161224e565b91505092915050565b6129ad816124e6565b82525050565b60006080820190506129c86000830187612622565b6129d560208301866121c7565b6129e260408301856121c7565b6129ef60608301846129a4565b95945050505050565b600060208284031215612a0e57612a0d6121fb565b5b6000612a1c8482850161236c565b91505092915050565b7f4e487b7100000000000000000000000000000000000000000000000000000000600052601160045260246000fd5b6000612a5f826121bd565b9150612a6a836121bd565b9250828203905081811115612a8257612a81612a25565b5b92915050565b600082825260208201905092915050565b7f546f6b656e206973206e6f7420616c6c6f776564000000000000000000000000600082015250565b6000612acf601483612a88565b9150612ada82612a99565b602082019050919050565b60006020820190508181036000830152612afe81612ac2565b9050919050565b7f596f75206e65656420746f206465706f73697420736f6d657468696e67000000600082015250565b6000612b3b601d83612a88565b9150612b4682612b05565b602082019050919050565b60006020820190508181036000830152612b6a81612b2e565b9050919050565b7f596f7520616c7265616479207061727469636970617465000000000000000000600082015250565b6000612ba7601783612a88565b9150612bb282612b71565b602082019050919050565b60006020820190508181036000830152612bd681612b9a565b9050919050565b6000819050919050565b612bf081612bdd565b8114612bfb57600080fd5b50565b600081519050612c0d81612be7565b92915050565b612c1c816124e6565b8114612c2757600080fd5b50565b600081519050612c3981612c13565b92915050565b60008060408385031215612c5657612c556121fb565b5b6000612c6485828601612bfe565b9250506020612c7585828601612c2a565b9150509250929050565b7f546f6b656e206973206e6f7420737570706f72746564206f72206e6f7420617660008201527f61696c61626c6520617420746865206d6f6d656e740000000000000000000000602082015250565b6000612cdb603583612a88565b9150612ce682612c7f565b604082019050919050565b60006020820190508181036000830152612d0a81612cce565b9050919050565b6000608082019050612d266000830187612622565b612d3360208301866121c7565b612d406040830185612622565b612d4d6060830184612622565b95945050505050565b600081519050612d6581612355565b92915050565b600060208284031215612d8157612d806121fb565b5b6000612d8f84828501612d56565b91505092915050565b600081519050612da781612237565b92915050565b600060208284031215612dc357612dc26121fb565b5b6000612dd184828501612d98565b91505092915050565b6000612de5826121bd565b9150612df0836121bd565b9250828201905080821115612e0857612e07612a25565b5b92915050565b6000612e19826121bd565b9150612e24836121bd565b9250828202612e32816121bd565b91508282048414831517612e4957612e48612a25565b5b5092915050565b7f4e487b7100000000000000000000000000000000000000000000000000000000600052603260045260246000fd5b7f4e487b7100000000000000000000000000000000000000000000000000000000600052601260045260246000fd5b6000612eb9826121bd565b9150612ec4836121bd565b925082612ed457612ed3612e7f565b5b828204905092915050565b6000819050919050565b600067ffffffffffffffff82169050919050565b6000819050919050565b6000612f22612f1d612f1884612edf565b612efd565b612ee9565b9050919050565b612f3281612f07565b82525050565b6000602082019050612f4d6000830184612f29565b92915050565b6000612f5e826121bd565b9150612f69836121bd565b925082612f7957612f78612e7f565b5b828206905092915050565b6000612f8f826121bd565b91507fffffffffffffffffffffffffffffffffffffffffffffffffffffffffffffffff8203612fc157612fc0612a25565b5b600182019050919050565b6000606082019050612fe16000830186612622565b612fee6020830185612622565b612ffb60408301846121c7565b949350505050565b60006040820190506130186000830185612622565b6130256020830184612622565b9392505050565b600060408201905061304160008301856121c7565b61304e6020830184612622565b9392505050565b6000819050919050565b600061307a61307561307084613055565b612efd565b6121bd565b9050919050565b61308a8161305f565b82525050565b60006020820190506130a56000830184613081565b92915050565b60006040820190506130c06000830185612622565b6130cd60208301846121c7565b9392505050565b60006040820190506130e96000830185612622565b6130f66020830184613081565b939250505056fea2646970667358221220567f812317202bcb15512a1af8e1a61b82682818a145a1253995cffb4d2ba03a64736f6c634300081c0033",
  "linkReferences": {},
  "deployedLinkReferences": {}
}