{
  "_format": "hh-sol-artifact-1",
  "contractName": "VRFv2Consumer",
  "sourceName": "contracts/VRFv2Consumer.sol",
  "abi": [
    {
      "inputs": [
        {
          "internalType": "uint64",
          "name": "subscriptionId",
          "type": "uint64"
        },
        {
          "internalType": "address",
          "name": "vrfCoordinator",
          "type": "address"
        },
        {
          "internalType": "bytes32",
          "name": "keyHash",
          "type": "bytes32"
        }
      ],
      "stateMutability": "nonpayable",
      "type": "constructor"
    },
    {
      "inputs": [
        {
          "internalType": "address",
          "name": "have",
          "type": "address"
        },
        {
          "internalType": "address",
          "name": "want",
          "type": "address"
        }
      ],
      "name": "OnlyCoordinatorCanFulfill",
      "type": "error"
    },
    {
      "anonymous": false,
      "inputs": [
        {
          "indexed": false,
          "internalType": "uint256[]",
          "name": "randomWords",
          "type": "uint256[]"
        }
      ],
      "name": "ReturnedRandomness",
      "type": "event"
    },
    {
      "inputs": [
        {
          "internalType": "uint256",
          "name": "requestId",
          "type": "uint256"
        },
        {
          "internalType": "uint256[]",
          "name": "randomWords",
          "type": "uint256[]"
        }
      ],
      "name": "rawFulfillRandomWords",
      "outputs": [],
      "stateMutability": "nonpayable",
      "type": "function"
    },
    {
      "inputs": [],
      "name": "requestRandomWords",
      "outputs": [],
      "stateMutability": "nonpayable",
      "type": "function"
    },
    {
      "inputs": [
        {
          "internalType": "uint256",
          "name": "",
          "type": "uint256"
        }
      ],
      "name": "s_randomWords",
      "outputs": [
        {
          "internalType": "uint256",
          "name": "",
          "type": "uint256"
        }
      ],
      "stateMutability": "view",
      "type": "function"
    },
    {
      "inputs": [],
      "name": "s_requestId",
      "outputs": [
        {
          "internalType": "uint256",
          "name": "",
          "type": "uint256"
        }
      ],
      "stateMutability": "view",
      "type": "function"
    }
  ],
  "bytecode": "0x61010060405234801561001157600080fd5b50604051610ab4380380610ab4833981810160405281019061003391906101e3565b818073ffffffffffffffffffffffffffffffffffffffff1660808173ffffffffffffffffffffffffffffffffffffffff1681525050508173ffffffffffffffffffffffffffffffffffffffff1660a08173ffffffffffffffffffffffffffffffffffffffff16815250508060e0818152505033600260006101000a81548173ffffffffffffffffffffffffffffffffffffffff021916908373ffffffffffffffffffffffffffffffffffffffff1602179055508267ffffffffffffffff1660c08167ffffffffffffffff1681525050505050610236565b600080fd5b600067ffffffffffffffff82169050919050565b61012c8161010f565b811461013757600080fd5b50565b60008151905061014981610123565b92915050565b600073ffffffffffffffffffffffffffffffffffffffff82169050919050565b600061017a8261014f565b9050919050565b61018a8161016f565b811461019557600080fd5b50565b6000815190506101a781610181565b92915050565b6000819050919050565b6101c0816101ad565b81146101cb57600080fd5b50565b6000815190506101dd816101b7565b92915050565b6000806000606084860312156101fc576101fb61010a565b5b600061020a8682870161013a565b935050602061021b86828701610198565b925050604061022c868287016101ce565b9150509250925092565b60805160a05160c05160e05161083f61027560003960006101c3015260006101e40152600061018701526000818160c7015261011b015261083f6000f3fe608060405234801561001057600080fd5b506004361061004c5760003560e01c80631fe543e314610051578063e0c862891461006d578063e89e106a14610077578063f6eaffc814610095575b600080fd5b61006b600480360381019061006691906104ff565b6100c5565b005b610075610185565b005b61007f610276565b60405161008c919061056a565b60405180910390f35b6100af60048036038101906100aa9190610585565b61027c565b6040516100bc919061056a565b60405180910390f35b7f000000000000000000000000000000000000000000000000000000000000000073ffffffffffffffffffffffffffffffffffffffff163373ffffffffffffffffffffffffffffffffffffffff161461017757337f00000000000000000000000000000000000000000000000000000000000000006040517f1cf993f400000000000000000000000000000000000000000000000000000000815260040161016e9291906105f3565b60405180910390fd5b61018182826102a0565b5050565b7f000000000000000000000000000000000000000000000000000000000000000073ffffffffffffffffffffffffffffffffffffffff16635d3b1d307f00000000000000000000000000000000000000000000000000000000000000007f00000000000000000000000000000000000000000000000000000000000000006003620186a060016040518663ffffffff1660e01b815260040161022b959493929190610694565b6020604051808303816000875af115801561024a573d6000803e3d6000fd5b505050506040513d601f19601f8201168201806040525081019061026e91906106fc565b600181905550565b60015481565b6000818154811061028c57600080fd5b906000526020600020016000915090505481565b80600090805190602001906102b69291906102f2565b507fefb16d61046900da527008568620fb9f8420e2f5ed4de3bfbded5035c9362b0e816040516102e691906107e7565b60405180910390a15050565b82805482825590600052602060002090810192821561032e579160200282015b8281111561032d578251825591602001919060010190610312565b5b50905061033b919061033f565b5090565b5b80821115610358576000816000905550600101610340565b5090565b6000604051905090565b600080fd5b600080fd5b6000819050919050565b61038381610370565b811461038e57600080fd5b50565b6000813590506103a08161037a565b92915050565b600080fd5b6000601f19601f8301169050919050565b7f4e487b7100000000000000000000000000000000000000000000000000000000600052604160045260246000fd5b6103f4826103ab565b810181811067ffffffffffffffff82111715610413576104126103bc565b5b80604052505050565b600061042661035c565b905061043282826103eb565b919050565b600067ffffffffffffffff821115610452576104516103bc565b5b602082029050602081019050919050565b600080fd5b600061047b61047684610437565b61041c565b9050808382526020820190506020840283018581111561049e5761049d610463565b5b835b818110156104c757806104b38882610391565b8452602084019350506020810190506104a0565b5050509392505050565b600082601f8301126104e6576104e56103a6565b5b81356104f6848260208601610468565b91505092915050565b6000806040838503121561051657610515610366565b5b600061052485828601610391565b925050602083013567ffffffffffffffff8111156105455761054461036b565b5b610551858286016104d1565b9150509250929050565b61056481610370565b82525050565b600060208201905061057f600083018461055b565b92915050565b60006020828403121561059b5761059a610366565b5b60006105a984828501610391565b91505092915050565b600073ffffffffffffffffffffffffffffffffffffffff82169050919050565b60006105dd826105b2565b9050919050565b6105ed816105d2565b82525050565b600060408201905061060860008301856105e4565b61061560208301846105e4565b9392505050565b6000819050919050565b61062f8161061c565b82525050565b600067ffffffffffffffff82169050919050565b61065281610635565b82525050565b600061ffff82169050919050565b61066f81610658565b82525050565b600063ffffffff82169050919050565b61068e81610675565b82525050565b600060a0820190506106a96000830188610626565b6106b66020830187610649565b6106c36040830186610666565b6106d06060830185610685565b6106dd6080830184610685565b9695505050505050565b6000815190506106f68161037a565b92915050565b60006020828403121561071257610711610366565b5b6000610720848285016106e7565b91505092915050565b600081519050919050565b600082825260208201905092915050565b6000819050602082019050919050565b61075e81610370565b82525050565b60006107708383610755565b60208301905092915050565b6000602082019050919050565b600061079482610729565b61079e8185610734565b93506107a983610745565b8060005b838110156107da5781516107c18882610764565b97506107cc8361077c565b9250506001810190506107ad565b5085935050505092915050565b600060208201905081810360008301526108018184610789565b90509291505056fea264697066735822122097aafd423bee7cfd821f145a22e770bd4246a7bab7dc0158a2e82d2f8cab580e64736f6c634300081c0033",
  "linkReferences": {},
  "deployedLinkReferences": {}
}